S01F00004C696E6561725F4D6F746F725F436F6E74726F6C6C65722E73726563B7
S11300000C9434000C9451000C9451000C94510045
S11300100C9451000C9451000C9451000C94510018
S11300200C9451000C9451000C9451000C940D024A
S11300300C9474020C9451000C94F1010C9432024F
S11300400C9451000C9451000C9453000C945100E6
S11300500C9451000C9451000C9451000C945100D8
S11300600C9451000C94510011241FBECFEFD8E022
S1130070DEBFCDBF11E0A0E0B1E0E2EDF9E002C0E7
S113008005900D92AA33B107D9F722E0AAE3B1E0B3
S113009001C01D92A934B207E1F70E94B2000C948A
S11300A0E7040C9400001F920F920FB60F921124D4
S11300B08F939F93EF93FF938091C60090913C019F
S11300C0911147C08B3749F490913D019F5F909304
S11300D03D0191E090933A0112C08D3781F49091E3
S11300E03A01913061F490913D01915090933D011A
S11300F090913D01911103C091E090933C01909146
S11301003A019130A9F4E0913E01F0E0E65BFE4F44
S1130110808380913E018F5F80933E0180913C01FA
S1130120813031F4E0913E01F0E0E65BFE4F108255
S113013080913E018E3F21F080913D01843048F052
S113014081E080933B0110923A0110923C0110929D
S11301503E01FF91EF919F918F910F900FBE0F90F1
S11301601F90189583E390E00E9496027894E091A2
S11301704101F091420180E090E0A8E4B1E4808381
S11301809183A283B383E0913F01F091400186E91A
S113019080830E942901E0913F01F0914001408158
S11301A0E0914101F09142016081718182819381EA
S11301B00E944301C1ECD0E080913C01813081F583
S11301C088818F7E888380E091E00E94AB028AE47C
S11301D091E00E94AB0260913F01709140018AE47A
S11301E091E00E94C102E0913F01F0914001408101
S11301F0E0914101F091420160817181828193819A
S11302000E94430186E391E00E94AB0210923C01FC
S113021010923A0110923E01888180618883CCCF8C
S113022080913B01813041F688818F7E888380E014
S113023091E00E94AB0289E191E00E94AB0210922E
S11302403B0110923A0110923D01888180618883BC
S1130250B3CF85B5816085BD80E487BD80E188BD6D
S1130260E1E8F0E0808182608083209A8AB1806E28
S11302708AB9289A5E9A5D985F981092450181E048
S11302808093490108954F925F926F927F928F926B
S11302909F92AF92BF92CF92DF92EF92FF92411161
S11302A018C05F9A5E9A28985D98EFE6F0E0808126
S11302B08D7F808380818B7F8083EEE6F0E0808178
S11302C08D7F808380818B7F808381E08093450153
S11302D07BC06B017C01642F70E080E090E00E94A1
S11302E0EC0320E030E04FE753E40E944B034B0162
S11302F05C01A7019601C701B6010E94DF029B01C0
S1130300AC0160E070E08AE794E40E944B032B01A7
S11303103C019B01AC01C501B4010E947A046B014C
S11303207C01A501940160E070E080E89FE30E94F5
S1130330DE02A30192010E947A04A70196010E94A1
S1130340DF0220E030E0A9010E94DF0220E030E07B
S11303504AE754E40E947A040E94BD037093480162
S11303606093470120E030E04AE754E4C701B60156
S11303700E947A040E94BD03709344016093430178
S11303801092460181E080934501809149018823C0
S113039091F0809147019091480190938900809356
S11303A08800809143019091440190938B00809345
S11303B08A0010924901EFE6F0E080818660808334
S11303C01092850010928400FF90EF90DF90CF9000
S11303D0BF90AF909F908F907F906F905F904F9061
S11303E008951F920F920FB60F9211248F93EF93DB
S11303F0FF93EEE6F0E080818D7F8083809146015B
S1130400811102C05F9A01C05E9AFF91EF918F91B2
S11304100F900FBE0F901F9018951F920F920FB65A
S11304200F9211248F93EF93FF93809146018111D2
S113043002C05E9801C05F98EFE6F0E080818D7F96
S1130440808380818B7F8083EEE6F0E0808184600E
S1130450808316BCFF91EF918F910F900FBE0F9088
S11304601F9018951F920F920FB60F9211248F931D
S11304709F93EF93FF93EEE6F0E080818B7F808380
S113048080914601811105C05D9A81E08093460107
S113049003C0289A1092460180914501882379F07F
S11304A0809147019091480187BD809143019091CB
S11304B0440190938B0080938A0010924501EFE6EB
S11304C0F0E08081846080838081826080831092E8
S11304D0850010928400FF91EF919F918F910F906E
S11304E00FBE0F901F9018951F920F920FB60F9288
S11304F011248F93EF93FF93EFE6F0E080818B7FDD
S1130500808380914601811102C0289801C05D98C2
S1130510EEE6F0E080818260808316BCFF91EF916B
S11305208F910F900FBE0F901F9018951092C000DE
S11305308093C400E1ECF0E0808188608083808156
S113054080618083808180688083E2ECF0E0808138
S1130550866080830895CF93DF93FC01208122235A
S113056069F0DC011196E0ECF0E0C6ECD0E090819B
S113057095FFFDCF28832D912111F9CFDF91CF91E4
S11305800895FC013196049620E030E0A901440F5F
S1130590551F220F331F220F331F220F331F240F27
S11305A0351F419150E040535109240F351FE8177E
S11305B0F90761F7FB013183208308955058BB2765
S11305C0AA270E94F6020C9440040E94320438F0D8
S11305D00E94390420F039F49F3F19F426F40C9456
S11305E02F040EF4E095E7FB0C942904E92F0E94F4
S11305F0510458F3BA17620773078407950720F06C
S113060079F4A6F50C9473040EF4E0950B2EBA2F2E
S1130610A02D0B01B90190010C01CA01A001112404
S1130620FF27591B99F0593F50F4503E68F11A16B0
S1130630F040A22F232F342F4427585FF3CF469541
S113064037952795A795F0405395C9F77EF41F1663
S1130650BA0B620B730B840BBAF09150A1F0FF0F2D
S1130660BB1F661F771F881FC2F70EC0BA0F621F19
S1130670731F841F48F4879577956795B795F79509
S11306809E3F08F0B0CF9395880F08F09927EE0F9E
S11306909795879508950E945F030C9440040E94E7
S11306A0390458F00E94320440F029F45F3F29F0E5
S11306B00C94290451110C9474040C942F040E947A
S11306C0510468F39923B1F3552391F3951B550B0A
S11306D0BB27AA2762177307840738F09F5F5F4F11
S11306E0220F331F441FAA1FA9F335D00E2E3AF050
S11306F0E0E832D091505040E695001CCAF72BD068
S1130700FE2F29D0660F771F881FBB1F26173707B8
S11307104807AB07B0E809F0BB0B802DBF01FF27EA
S113072093585F4F3AF09E3F510578F00C9429049A
S11307300C9474045F3FE4F3983ED4F38695779564
S11307406795B795F7959F5FC9F7880F911D9695A3
S1130750879597F90895E1E0660F771F881FBB1FFF
S1130760621773078407BA0720F0621B730B840BAC
S1130770BA0BEE1F88F7E09508950E94590488F09B
S11307809F5798F0B92F9927B751B0F0E1F0660F51
S1130790771F881F991F1AF0BA95C9F714C0B13092
S11307A091F00E947304B1E008950C947304672FD0
S11307B0782F8827B85F39F0B93FCCF386957795C1
S11307C06795B395D9F73EF49095809570956195AA
S11307D07F4F8F4F9F4F0895E89409C097FB3EF4D5
S11307E090958095709561957F4F8F4F9F4F99237A
S11307F0A9F0F92F96E9BB279395F69587957795F8
S11308006795B795F111F8CFFAF4BB0F11F460FFB7
S11308101BC06F5F7F4F8F4F9F4F16C0882311F00F
S113082096E911C0772321F09EE8872F762F05C023
S1130830662371F096E8862F70E060E02AF09A95BE
S1130840660F771F881FDAF7880F9695879597F9B3
S1130850089597F99F6780E870E060E008959FEF3E
S113086080EC089500240A94161617061806090643
S1130870089500240A941216130614060506089512
S1130880092E0394000C11F4882352F0BB0F40F49A
S1130890BF2B11F460FF04C06F5F7F4F8F4F9F4FDA
S11308A0089557FD9058440F551F59F05F3F71F05C
S11308B04795880F97FB991F61F09F3F79F08795C3
S11308C00895121613061406551FF2CF4695F1DF4C
S11308D008C0161617061806991FF1CF86957105DC
S11308E0610508940895E894BB2766277727CB0110
S11308F097F908950E948D040C9440040E943204D8
S113090038F00E94390420F0952311F00C94290446
S11309100C942F0411240C9474040E94510470F359
S1130920959FC1F3950F50E0551F629FF001729F90
S1130930BB27F00DB11D639FAA27F00DB11DAA1F9F
S1130940649F6627B00DA11D661F829F2227B00DEC
S1130950A11D621F739FB00DA11D621F839FA00D77
S1130960611D221F749F3327A00D611D231F849FC7
S1130970600D211D822F762F6A2F11249F5750401E
S11309809AF0F1F088234AF0EE0FFF1FBB1F661F99
S1130990771F881F91505040A9F79E3F510580F062
S11309A00C9429040C9474045F3FE4F3983ED4F34C
S11309B0869577956795B795F795E7959F5FC1F706
S11309C0FE2B880F911D9695879597F90895F894B5
S10509D0FFCF53
S11309D20A0D46726F6D204D6963726F636F6E7498
S11309E2726F6C6C65723A20004572726F722120CC
S11309F254686520636F6D6D616E6420697320694C
S10D0A026E76616C69640A0D000051
S9030000FC
