S01F00004C696E6561725F4D6F746F725F436F6E74726F6C6C65722E73726563B7
S11300000C9452000C946F000C946F000C946F00CD
S11300100C946F000C946F000C946F000C94F80B0C
S11300200C943A0C0C946F000C946F000C94140C08
S11300300C94AC0C0C946F000C9488000C946F001E
S11300400C946F000C946F000C941E090C946F00B8
S11300500C946F000C949A000C946F000C946F0035
S11300600C946F000C946F004E414E494E49545904
S1130070494E46CDCCCC3D0AD7233C17B7D138776F
S1130080CC2B329595E6241FB14F0A000020410085
S113009000C84200401C4620BCBE4CCA1B0E5AAECF
S11300A0C59D740011241FBECFEFD8E0DEBFCDBFC5
S11300B012E0A0E0B1E0E6E0F4E302C005900D92A6
S11300C0A435B107D9F724E0A4E5B2E001C01D923C
S11300D0A237B207E1F70E947D090C94011A0C942F
S11300E00000EAE7F0E08081866080838081806898
S11300F08083808188608083808180628083EBE755
S1130100F0E080818360808385B5836085BD089538
S11301101F920F920FB60F9211248F938091CB03ED
S11301208F5F8093CB0316BC8F910F900FBE0F90FF
S11301301F9018951F920F920FB60F9211248F9251
S11301409F92AF92BF92CF92DF92EF92FF920F9362
S11301501F932F933F934F935F936F937F938F934B
S11301609F93AF93BF93EF93FF93CF93DF93CDB759
S1130170DEB72597DEBFCDBF8091CC03863999F0D9
S1130180E091CC03F0E08091780090917900EE0F3B
S1130190FF1FE856FD4F918380838091CC038F5FCE
S11301A08093CC036BC01092CC038AE091E00E9450
S11301B0280F00E010E00F2EF8EECF2EF3E0DF2E34
S11301C0F02D0F2EF4E6EF2EF12CF02D0F2EFAE089
S11301D0AF2EB12CF02DF801EE0FFF1FE856FD4FA6
S11301E02081318140815181808091800190F08112
S11301F0E02D369527953695279536952795A5ECC8
S1130200B0E20E94BD11929582958F7089279F70EC
S11302108927805D8983CA019927B6010E94A911A3
S1130220B7010E94A911605D6A83C4019927B601D0
S11302300E94A911B7010E94A911B5010E94A91138
S1130240605D6B83CF019927B6010E94A911B701A4
S11302500E94A911B5010E94A911805D8C831D82A1
S1130260CE0101960E94280F88E191E00E94280F98
S11302700F5F1F4F0639110509F0ADCF0F900F9096
S11302800F900F900F90DF91CF91FF91EF91BF915D
S1130290AF919F918F917F916F915F914F913F911A
S11302A02F911F910F91FF90EF90DF90CF90BF900F
S11302B0AF909F908F900F900FBE0F901F90189546
S11302C00F931F93CF93DF93DC01161617061CF0D0
S11302D08FEF9FEF45C020E030E0CBE1D1E0FD019E
S11302E0E20FF31F90819C3509F589010F5F1F4FC1
S11302F0061717074CF5FD01E20FF31F81818830C3
S113030071F403C089130DC001C0AE014B515140BB
S1130310FA01EC5DFE4F808181110DC01EC0ECE13D
S1130320F1E0AF0191919111EDCF17C0992379F0CC
S1130330923211F40FC098012F5F3F4F26173707F1
S113034074F28FEF9FEF0CC08FEF9FEF09C08FEF18
S11303509FEF06C0822F932F03C02F5F3F4FBFCF65
S1130360DF91CF911F910F910895AF92BF92CF92D9
S1130370DF92EF92FF920F931F93CF93DF93D801F5
S11303805296ED91FC915397EF2B09F03EC18B37B8
S1130390910511F5ED91FC91119712968D919C9117
S11303A01397E80FF91F808181110FC014962D91C6
S11303B03C91159716968D919C911797281739079C
S11303C021F41D965C934E931C97F80184819581CA
S11303D001969583848319C1E80189017A019B01FF
S11303E08B35910509F047C02C813D818E819F8119
S11303F028173907D1F5488159812A813B81FA01AF
S1130400E20FF31F90819B3509F0FBC01986188613
S1130410C901019660E070E0840F951F0E94C71324
S11304200E9478107B876A872885398526173707C5
S113043051F48E819F8101969F838E838A819B8153
S113044003969B838A83E881F9818A819B81E80FE3
S1130450F91F8081811109C02C813D818E819F818A
S11304602817390711F4FD86EC868C819D8101964D
S11304709D838C83CAC08C32910579F54C815D8152
S11304808E819F8101964817590709F0BEC088855F
S113049099850196998788872A853B8582179307D2
S11304A009F0B3C0E881F9818A819B81DF01A80F3B
S11304B0B91F2C912D3559F09C012F5F3F4FE20F4E
S11304C0F31F01969B838A8321912D35D1F70196E1
S11304D09B838A835F834E8398C08130910579F52D
S11304E0CC80DD808E819F810196C816D90609F0E3
S11304F08CC088819981AA80BB80FC01EA0DFB1D18
S113050040814E3209F081C0B5016F5F7F4F680FA3
S1130510791FC7010196A80142505109820F931F08
S11305200E944C16892B09F070C0DF82CE8298019C
S113053021503109A20EB31EBB82AA8266C0AC014F
S11305404F7D4D355105A9F54C815D8141505109CF
S11305505D834C83E881F9816A817B81E60FF71F13
S11305606081611152C06E817F814617570709F07F
S11305704CC06C857D856F3FFFEF7F0709F445C054
S113058002979B8B8A8BEE85FF85309721F0620F53
S1130590731F71836083E889F9893097B1F18C8581
S11305A09D85E81AF90A4FEFE41AF40AF182E08211
S11305B02CC0AC014B5051094930510530F56C81C8
S11305C07D814E815F8164177507F9F4E881F981B3
S11305D04A815B81E40FF51F4081411116C09B8B5A
S11305E08A8BEE85FF85309729F0A9014E0D5F1D9A
S11305F051834083E889F989309739F01183008366
S113060004C0992309F42FCF30CFDF91CF911F91EC
S11306100F91FF90EF90DF90CF90BF90AF9008952F
S11306208F929F92AF92BF92CF92DF92EF92FF92FE
S11306300F931F93CF93DF936C015B018A01DC015D
S11306401296ED91FC91139780819181009741F06E
S1130650EC0109900020E9F72197C81BD90B02C0CF
S1130660C0E0D0E07E01E00EF11EB7016F5F7F4F66
S11306700E9401134C010097A1F0A801B5018C0F51
S11306809D1F0E945916F401EE0DFF1D1082D60124
S11306901296ED91FC91139791828082802F912F75
S11306A002C080E090E0DF91CF911F910F91FF9005
S11306B0EF90DF90CF90BF90AF909F908F90089570
S11306C02F923F924F925F926F927F928F929F925E
S11306D0AF92BF92CF92DF92EF92FF920F931F934C
S11306E0CF93DF93CDB7DEB7AA970FB6F894DEBFEA
S11306F00FBECDBF6C015A83498381E090E09C8397
S11307008B831E821D8218861F821A8619861C8678
S11307101B86EFEFFFEFFE87ED87388B2F871A8B51
S1130720098B1C8A1B8AFA019081943209F0B5C1A5
S1130730161617060CF0B5C15B01612C712C512CF7
S1130740E12CF12C0F2EF3E04F2EF02D312C212C27
S113075086010E0D1F1DF8019081903209F491C19C
S113076027EF290F223008F48CC19D3009F489C188
S1130770E92FF0E021E0521609F4ECC0521648F0DB
S113078082E0581609F425C123E0521609F425C164
S11307905CC19B37A1F484E1681671040CF081C13B
S11307A0A5E1B0E0AC0FBD1FA60DB71D8BE78C9380
S11307B0C30101963C0147015524539454C19B3510
S11307C091F494E1691671040CF06BC1A5E1B0E0F9
S11307D0AC0FBD1FA60DB71D2BE52C93C3010196CD
S11307E03C01470140C19D3511F591E0691A71083A
S11307F0A5E1B0E0AC0FBD1FA60DB71D8C9190E034
S11308000296E817F90709F04CC16114710409F064
S11308101EC18E010F5F1F4F21E030E0A701B6011A
S1130820CF010E94B501EFEFEE1AFE0A32C19437F0
S113083099F44701F3E08F0E911C8A149B040CF089
S113084030C144E050E06DE271E0C8010E944C16F2
S1130850892B09F461C025C19E3699F4470123E030
S1130860820E911C8A149B040CF01BC144E050E0DE
S113087062E371E0C8010E944C16892B09F44FC051
S113088010C1963691F4470184E0880E911C8A14B5
S11308909B040CF006C145E050E067E371E0C80139
S11308A00E944C16892BF1F1FCC09D3221F080EDA1
S11308B0890F8A30C8F41AA619A6BE01675D7F4F56
S11308C0C8010E94C71389A59AA5009749F0801B07
S11308D0910B4C01E1E08E1A91088E0C9F1C01C013
S11308E04701ECE0F22D20C0923209F0DAC0B501E4
S11308F06E197F0961507109C70101968C0D9D1D08
S11309000E94600199230CF4CCC001964C018E0C1A
S11309109F1CEBE0F0E008C0EDE0F0E005C0EFE084
S1130920F0E002C0EEE0F0E06114710409F092C05E
S113093094012E193F092F5F3F4F8E010F5F1F4F08
S1130940A701B601CF010E94B5017401FFEFEF1AB0
S1130950FF0A9FC09232C1F4B5016E197F0961503C
S11309607109C70101968C0D9D1D0E946001992398
S11309700CF497C001964C018E0C9F1CE1E0F32D02
S11309806894552451F86FC09D3709F08AC021E05E
S1130990621A7108A5E1B0E0AC0FBD1FA60DB71D2A
S11309A08C9190E00296E817F90709F07AC0611477
S11309B0710409F051C08E010F5F1F4F21E030E038
S11309C0A701B601CF010E94B5018FEFE81AF80A1A
S11309D060C09A3309F443C064C0161417040CF0C1
S11309E060C09C3271F455245394A4E1B0E0AC0F80
S11309F0BD1FA60DB71D8C918B3709F0512C4701F3
S1130A0032C09F7D9D3509F04CC091E0691A710890
S1130A10A5E1B0E0AC0FBD1FA60DB71D8C9190E011
S1130A200296E817F907E9F561147104D9F48E0107
S1130A300F5F1F4F21E030E0A701B601CF010E94F4
S1130A40B501EFEFEE1AFE0A24C047010CC04701BE
S1130A50542C09C0542C07C04701542C04C047012E
S1130A60512C01C0470194012E193F092F5F3F4FBC
S1130A708E010F5F1F4FA701B601CF010E94B50180
S1130A807401FFEFEF1AFF0AEA14FB040CF460CEC2
S1130A9008C0FF2024F08B8905C080E003C080E0FB
S1130AA001C080E0AA960FB6F894DEBF0FBECDBF9A
S1130AB0DF91CF911F910F91FF90EF90DF90CF9036
S1130AC0BF90AF909F908F907F906F905F904F906A
S1130AD03F902F9008958F929F92AF92BF92CF92A2
S1130AE0DF92EF92FF920F931F93CF93DF9300D087
S1130AF000D0CDB7DEB7690178018E010D5F1F4FBD
S1130B009E012F5F3F4F0E9460038B3009F061C04C
S1130B102B813C812250310969817A816F5F7F4F3B
S1130B20121613060CF049C01E141F040CF05DC00D
S1130B30F60140E050E080E090E00F2EF4E2AF2EAA
S1130B40F1E0BF2EF02DDB01A80FB91FAC91AC353D
S1130B5041F58C010F5F1F4F0217130714F5DB01DA
S1130B60A80FB91F11968C9082E688120EC003C09C
S1130B7098100DC001C0C50184529140DC01A55EEE
S1130B80BE4F8C9181110AC027C0A5E2B1E0CD010E
S1130B909D909110EDCF8FEF9FEF2EC08083C80101
S1130BA001C0A08301964F5F5F4F8217930704F53E
S1130BB03196E416F50639F618C01E141F047CF4A9
S1130BC040E050E0F601E40FF51F1082842F952FCA
S1130BD013C080E090E010C08FEF9FEF0DC08FEF47
S1130BE09FEF0AC08FEF9FEF07C08FEF9FEF04C006
S1130BF04E155F053CF3F6CF0F900F900F900F90BA
S1130C00DF91CF911F910F91FF90EF90DF90CF90E4
S1130C10BF90AF909F908F900895DC01ED91FC916F
S1130C2009950895EF92FF920F931F93CF93DF934B
S1130C30CDB7DEB7A8970FB6F894DEBF0FBECDBF11
S1130C408C017F936F938DE391E09F938F931F9219
S1130C5088E28F939E012F5F3F4F79013F932F933B
S1130C600E949016D801ED91FC91AC01B701C80126
S1130C7009950FB6F894DEBF0FBECDBFA8960FB688
S1130C80F894DEBF0FBECDBFDF91CF911F910F91BE
S1130C90FF90EF900895EF92FF920F931F93CF93DD
S1130CA0DF93CDB7DEB7A8970FB6F894DEBF0FBEBB
S1130CB0CDBF8C017F936F935F934F9380E491E05A
S1130CC09F938F931F9288E28F939E012F5F3F4FD4
S1130CD079013F932F930E949016D801ED91FC91D6
S1130CE0AC01B701C80109950FB6F894DEBF0FBE79
S1130CF0CDBFA8960FB6F894DEBF0FBECDBFDF916F
S1130D00CF911F910F91FF90EF9008958F929F9232
S1130D10AF92BF92CF92DF92EF92FF920F931F9305
S1130D20CF93DF931F92CDB7DEB77C014B015A01FD
S1130D30DC01ED91FC9141E050E063E471E0099540
S1130D406C011A141B040CF04BC08401A80CB91CD0
S1130D500F2EFBE18F2EF1E09F2EF02D602F712FCF
S1130D60F80191918F01983079F403C098130EC063
S1130D7001C094012B513140F901EC5DFE4F80819B
S1130D808983811108C01FC0ECE1F1E09F018191CA
S1130D908111ECCF31C0D701ED91FC9141E050E0DD
S1130DA065E471E0C7010995C80ED91ED701ED911C
S1130DB0FC9141E050E0BE016F5F7F4FC701099590
S1130DC0C80ED91E09C0D701ED91FC9141E050E055
S1130DD0C7010995C80ED91E0A151B0509F0BECF17
S1130DE0D701ED91FC9141E050E063E471E0C7016B
S1130DF009958C0D9D1D02C01982E5CF0F90DF91DE
S1130E00CF911F910F91FF90EF90DF90CF90BF9003
S1130E10AF909F908F9008952F923F924F925F9240
S1130E206F927F928F929F92AF92BF92CF92DF92F6
S1130E30EF92FF920F931F93CF93DF9300D000D0D4
S1130E4000D0CDB7DEB73C01062F172F6A01DC01B5
S1130E50ED91FC9141E050E063E471E009954C01AF
S1130E601C141D040CF086C0E02EF12E6894AA24F4
S1130E70A1F8B12C01E010E0212C0F2EFDE33F2E50
S1130E80F02D01C08C019701F7014081A42FB0E03F
S1130E901E830D830C151D051CF4818190E002C096
S1130EA0822D90E02501AC14BD0424F4F9012281C3
S1130EB030E002C0222D30E0B595A795B595A795F1
S1130EC0A95BBE4F5C9159834370F0E14F9FA00131
S1130ED01124BC017595679575956795759567950A
S1130EE075956795462B572BDA01A95BBE4F4C913C
S1130EF04A833B823C824D815E814C155D05B4F48E
S1130F008F709927880F991F880F991FF9010E2E4A
S1130F10EF2F000CEE1FFF0B000CEE1FFF1F8E2B9C
S1130F209F2BFC01E95BFE4F80818B834C145D0495
S1130F303CF42F733327F901E95BFE4F80818C83E6
S1130F40D301ED91FC9144E050E0BE016F5F7F4F0F
S1130F50C3010995880E991EB3E0EB0EF11CC8017C
S1130F600396E3E0AE0EB11C0E5F1F4F0C151D057A
S1130F700CF488CFD301ED91FC9141E050E063E49F
S1130F8071E0C3010995880D991D26960FB6F89452
S1130F90DEBF0FBECDBFDF91CF911F910F91FF90A8
S1130FA0EF90DF90CF90BF90AF909F908F907F9005
S1130FB06F905F904F903F902F9008953F924F9283
S1130FC05F926F927F928F929F92AF92BF92CF92D5
S1130FD0DF92EF92FF920F931F93CF93DF9300D092
S1130FE0CDB7DEB73C015B014A01DB018C9188235C
S1130FF009F4FDC0E12CF12C00E010E0C12CD12C4F
S11310000F2EFDE24F2EF1E05F2EF02D853209F018
S1131010DCC0BFEFEB1AFB0AEA0CFB1CF7013080C3
S1131020F1E53F1216C0740182E0E80EF11CD40110
S11310306D917C91FB0101900020E9F73197AF019C
S1131040461B570BC3010E948606C80ED91E4701D2
S1131050B9C043E050E068E871E0C7010E944C1653
S1131060892B91F47401B4E0EB0EF11CF40140817E
S1131070518162817381C3010E948606C80ED91E04
S11310800E5F1F4F47019EC0F4E63F120EC074016D
S113109082E0E80EF11CD4016D917C91C3010E94A1
S11310A01206C80ED91E47018DC0B2E43B121CC003
S11310B07401E2E0EE0EF11CD4018D919C91892B18
S11310C019F467E371E001C0B201FB010190002053
S11310D0E9F73197AF01461B570BC3010E940D0678
S11310E0C80ED91E47016EC0B3E73B1216C0740187
S11310F0E2E0EE0EF11CD4016D917C91FB010190B4
S11311000020E9F73197AF01461B570BC3010E943A
S11311100D06C80ED91E470155C043E050E06CE8E7
S113112071E0C7010E944C16892B91F47401B4E05C
S1131130EB0EF11CF4014081518162817381C30182
S11311400E940D06C80ED91E0E5F1F4F47013AC0FC
S1131150F6E63F1210C0740184E0E80EF11CD401DD
S11311604D915D916D917C91C3010E944B06C80E17
S1131170D91E470127C0B6E53B1213C07401E4E051
S1131180EE0EF11CD4014D915C91119712966D9164
S11311907C911397C3010E940C07C80ED91E470106
S11311A011C0BDE43B120EC0C40102969A83898328
S11311B0D401ED91FC91BE016F5F7F4FC30109958E
S11311C0C80ED91E0F5F1F4F07C041E050E0C30196
S11311D00E940D06C80ED91E0F5F1F4F7801B5017E
S11311E0600F711FFB018081811110CF02C0C12CDF
S11311F0D12CC6010F900F90DF91CF911F910F91C9
S1131200FF90EF90DF90CF90BF90AF909F908F9022
S11312107F906F905F904F903F900895CF93DF93AE
S1131220CDB7DEB7AE01475F5F4F6F8178858D81A3
S11312309E810E94DE07DF91CF9108951F920F9245
S11312400FB60F9211248F939F93EF93FF93809186
S1131250C60090915602911147C08B3749F4909182
S113126057029F5F9093570291E09093540212C0EB
S11312708D3781F490915402913061F4909157022A
S113128091509093570290915702911103C091E0AD
S113129090935602909154029130A9F4E09158022F
S11312A0F0E0EA52FC4F8083809158028F5F809374
S11312B0580280915602813031F4E0915802F0E0F6
S11312C0EA52FC4F108280915802853921F08091B6
S11312D05702843048F081E0809355021092540202
S11312E01092560210925802FF91EF919F918F91A4
S11312F00F900FBE0F901F901895CF93DF93CDB72B
S1131300DEB7AC970FB6F894DEBF0FBECDBF83E354
S113131090E00E94130F28E538E53A83298388E595
S113132090E09C838B833E832D8398878F833A87B9
S113133029879C878B873E872D87988B8F873A8B4D
S1131340298B9C8B8B8B3E8B2D8B988F8F8B8091D5
S1131350060190910701A0910801B0910901898FBC
S11313609A8FAB8FBC8F78941092C50380E090E085
S1131370A8E4B1E48093D1039093D203A093D30360
S1131380B093D40386E98093D5030E94E70A609161
S1131390D1037091D2038091D3039091D4034091EF
S11313A0D5030E94310B0E9471001092D003109259
S11313B0970201EC10E07E0125E0E20EF11CCE0163
S11313C001966C015E0197E2A90EB11C3E01E9E1B0
S11313D06E0E711CCE0145969AA789A7FE017196DF
S11313E0FCA7EBA71E01FDE02F0E311C2E0129E006
S11313F0420E511C4E018DE1880E911C80915602C3
S11314008130B1F5F80180818F7E808386ED93E091
S11314100E94280F8091D5034AE0B70190E00E9412
S11314206B1665ED73E086ED93E00E943E0F8091AC
S1131430D5034AE0B60190E00E946B166091D10397
S11314407091D2038091D3039091D4034091D5033A
S11314500E94310B88E191E00E94280F10925602FD
S11314601092540210925802F801808180618083A6
S113147080915602813009F07DC018A61FA280E138
S113148093E09E8F8D8FB8A2AF8E1AA219A21CA2D0
S11314901BA21EA21DA27F926F92EAE4F2E0FF93C8
S11314A0EF9380E991E09F938F9385E991E09F9377
S11314B08F93FAA5FF9329A52F9387E991E09F9332
S11314C08F938CE991E09F938F938CA58F939BA529
S11314D09F938EE991E09F938F9383EA91E09F938A
S11314E08F933F922F9286EA91E09F938F938BEA9A
S11314F091E09F938F935F924F928DEA91E09F9337
S11315008F9381EB91E09F938F9387EB91E09F936F
S11315108F938DEB91E09F938F93FF92EF9281ECE9
S113152091E09F938F93DF92CF928DE392E09F930C
S11315308F9385EC91E09F938F9389EC91E09F9337
S11315408F938BEC91E09F938F939F928F920E9445
S11315500E090FB6F894DEBF0FBECDBF88E191E04F
S11315600E94280F8FA198A50E94280F8FA198A5EB
S11315700E9478128091C5038823C1F00E94D20C86
S11315801092C5038FE696E69A8F898F86E690E0DF
S11315909C8F8B8F6091D1037091D2038091D30380
S11315A09091D4034091D5030E94310B8091D003D4
S11315B0882309F423CF6091D503662309F41ECF51
S11315C081ED93E00E94D00B1092D00317CFE1EB92
S11315D0F0E080818160808380E48093B30080E1C7
S11315E08093B400E1E8F0E0808182608083209AF7
S11315F08AB1806E8AB9289A5E9A5D985F98109233
S1131600C40381E08093CF030895EFE6F0E0808186
S11316108B7F808380818D7F8083E0E7F0E0808111
S11316208D7F808380818B7F808328988FE19EE4E7
S11316300197F1F700C000005D988FE19EE40197E7
S1131640F1F700C000005F9A8FE19EE40197F1F783
S113165000C000005E9A81E08093CF03109297024D
S113166008954F925F926F927F928F929F92AF9262
S1131670BF92CF92DF92EF92FF926B017C014111F6
S113168003C00E94050B76C0842F90E09093C90399
S11316908093C803642F70E080E090E00E94AE1055
S11316A020E030E04FE753E40E9406104B015C0158
S11316B0A7019601C701B6010E949A0F9B01AC01D4
S11316C060E070E08AE794E40E9406102B013C017C
S11316D09B01AC01C501B4010E943C116B017C016A
S11316E0A501940160E070E080E89FE30E94990FF7
S11316F0A30192010E943C11A70196010E949A0F36
S113170020E030E0A9010E949A0F20E030E04AE78F
S113171054E40E943C110E947F107093CE036093A6
S1131720CD0320E030E04AE754E4C701B6010E944B
S11317303C110E947F1070935A02609359021092D8
S1131740C60381E08093C4038091CF03882391F082
S11317508091CD039091CE0390938900809388006B
S11317608091590290915A0290938B0080938A0041
S11317701092CF03EFE6F0E08081866080831092C0
S1131780850010928400FF90EF90DF90CF90BF907F
S1131790AF909F908F907F906F905F904F9008953F
S11317A01F93CF93DF93EC01162F688179818A818F
S11317B09B8146E90E94310B2FEF81EE94E021508A
S11317C080409040E1F700C000001092CA0380916D
S11317D0CA038823E1F30E94050B688179818A8119
S11317E09B81412F0E94310BDF91CF911F9108956E
S11317F01F920F920FB60F9211248F93EF93FF93C2
S1131800E0E7F0E080818D7F80838091C6038111C1
S113181002C05F9A01C05E9AFF91EF918F910F9081
S11318200FBE0F901F9018951F920F920FB60F9234
S113183011248F93EF93FF938091C603811102C00B
S11318405E9801C05F98EFE6F0E080818D7F808331
S113185080818B7F8083E0E7F0E0808184608083F7
S11318601092B200FF91EF918F910F900FBE0F90E5
S11318701F9018951F920F920FB60F9211242F9359
S11318803F934F935F936F937F938F939F93AF9304
S1131890BF93EF93FF93E0E7F0E080818B7F808339
S11318A08091C8039091C903892B19F40E94050BF8
S11318B042C08091C603811105C05D9A81E0809386
S11318C0C6032DC0289A1092C603809197028431D2
S11318D0E0F4809197028F5F809397028091C40314
S11318E08823C1F08091CD039091CE039093890019
S11318F0809388008091590290915A0290938B00B2
S113190080938A001092C40305C081E08093D003C1
S1131910109297028091C503811110929702EFE60D
S1131920F0E0808184608083808182608083109273
S1131930850010928400FF91EF91BF91AF919F9128
S11319408F917F916F915F914F913F912F910F9064
S11319500FBE0F901F9018951F920F920FB60F9203
S113196011248F93EF93FF93EFE6F0E080818B7F58
S113197080838091C603811102C0289801C05D98BC
S1131980E0E7F0E08081826080831092B20081E021
S11319908093CA03FF91EF918F910F900FBE0F9028
S11319A01F90189546E960E070E082E893E40E9495
S11319B0310B2FEF8BEA9DE0215080409040E1F7FE
S11319C000C0000041E060E070E082E893E40E941F
S11319D0310B2FEF80E792E0215080409040E1F7F7
S11319E000C0000046E960E070E082E893E40E94F1
S11319F0310B2FEF8BEA9DE0215080409040E1F7BE
S1131A0000C0000041E060E070E082E893E40E94DE
S1131A10310B2FEF80E792E0215080409040E1F7B6
S1131A2000C0000046E960E070E082E893E40E94B0
S1131A30310B2FEF8BEA9DE0215080409040E1F77D
S1131A4000C0000041E060E070E082E893E40E949E
S1131A50310B2FEF80E792E0215080409040E1F776
S1131A6000C0000046E960E070E080E593E40E9475
S1131A70310B2FEF80E49AE0215080409040E1F751
S1131A8000C0000041E060E070E080E593E40E9463
S1131A90310B2FEF80E792E0215080409040E1F736
S1131AA000C0000046E960E070E084EA93E40E942C
S1131AB0310B2FEF8AE693E0215080409040E1F70C
S1131AC000C0000041E060E070E084EA93E40E941A
S1131AD0310B2FEF80E792E0215080409040E1F7F6
S1131AE000C0000046E960E070E082E893E40E94F0
S1131AF0310B2FEF8BEA9DE0215080409040E1F7BD
S1131B0000C0000041E060E070E082E893E40E94DD
S1131B10310B2FEF80E792E0215080409040E1F7B5
S1131B2000C0000046E960E070E080E593E40E94B4
S1131B30310B2FEF80E49AE0215080409040E1F790
S1131B4000C0000041E060E070E080E593E40E94A2
S1131B50310B2FEF80E792E0215080409040E1F775
S1131B6000C0000046E960E070E084EA93E40E946B
S1131B70310B2FEF8AE693E0215080409040E1F74B
S1131B8000C0000041E060E070E084EA93E40E9459
S1131B90310B2FEF80E792E0215080409040E1F735
S1131BA000C0000046E960E070E082E893E40E942F
S1131BB0310B2FEF87E59BE1215080409040E1F706
S1131BC000C0000041E060E070E082E893E40E941D
S1131BD0310B2FEF80E792E0215080409040E1F7F5
S1131BE000C0000046E960E070E884EC93E40E94E1
S1131BF0310B2FEF8BEA9DE0215080409040E1F7BC
S1131C0000C0000041E060E070E884EC93E40E94CE
S1131C10310B2FEF80E792E0215080409040E1F7B4
S1131C2000C0000046E960E070E884EC93E40E94A0
S1131C30310B2FEF8BEA9DE0215080409040E1F77B
S1131C4000C0000041E060E070E884EC93E40E948E
S1131C50310B2FEF80E792E0215080409040E1F774
S1131C6000C0000046E960E070E884EC93E40E9460
S1131C70310B2FEF8BEA9DE0215080409040E1F73B
S1131C8000C0000041E060E070E884EC93E40E944E
S1131C90310B2FEF80E792E0215080409040E1F734
S1131CA000C0000046E960E070E080ED93E40E942B
S1131CB0310B2FEF80E49AE0215080409040E1F70F
S1131CC000C0000041E060E070E080ED93E40E9419
S1131CD0310B2FEF80E792E0215080409040E1F7F4
S1131CE000C0000046E960E070E084EA93E40E94EA
S1131CF0310B2FEF8AE693E0215080409040E1F7CA
S1131D0000C0000041E060E070E084EA93E40E94D7
S1131D10310B2FEF80E792E0215080409040E1F7B3
S1131D2000C0000046E960E070E086E793E40E94AA
S1131D30310B2FEF8BEA9DE0215080409040E1F77A
S1131D4000C0000041E060E070E086E793E40E9498
S1131D50310B2FEF80E792E0215080409040E1F773
S1131D6000C0000046E960E070E080E593E40E9472
S1131D70310B2FEF80E49AE0215080409040E1F74E
S1131D8000C0000041E060E070E080E593E40E9460
S1131D90310B2FEF80E792E0215080409040E1F733
S1131DA000C0000046E960E070E084EA93E40E9429
S1131DB0310B2FEF8AE693E0215080409040E1F709
S1131DC000C0000041E060E070E084EA93E40E9417
S1131DD0310B2FEF80E792E0215080409040E1F7F3
S1131DE000C0000046E960E070E082E893E40E94ED
S1131DF0310B2FEF87E59BE1215080409040E1F7C4
S1131E0000C0000041E060E070E082E893E40E94DA
S1131E10310B2FEF80E792E0215080409040E1F7B2
S1131E2000C0000008951092C0008093C400E1EC4B
S1131E30F0E08081886080838081806180838081FC
S1131E4080688083E2ECF0E080818660808308957E
S1131E50CF93DF93FC012081222369F0DC011196EA
S1131E60E0ECF0E0C6ECD0E0908195FFFDCF288354
S1131E702D912111F9CFDF91CF910895CF92DF9267
S1131E80EF92FF920F931F93CF93DF9300D000D074
S1131E9000D0CDB7DEB77C016B01FC0101900020BE
S1131EA0E9F73197BF01681B790B04E010E09E014C
S1131EB02F5F3F4F45E352E00E946B05892B59F099
S1131EC04AE050E0BE016B5F7F4FCE0101960E9455
S1131ED01515F6016083F70101900020E9F73197A9
S1131EE0BF016E197F0904E010E09E012F5F3F4F90
S1131EF041E452E0C7010E946B05892B59F060E56B
S1131F0072E0CE0101960E946216892B19F481E0D9
S1131F108093C50326960FB6F894DEBF0FBECDBFDF
S1131F20DF91CF911F910F91FF90EF90DF90CF90B1
S1131F3008955058BB27AA270E94B10F0C94021190
S1131F400E94F41038F00E94FB1020F039F49F3FF7
S1131F5019F426F40C94F1100EF4E095E7FB0C94BC
S1131F60EB10E92F0E94131158F3BA176207730795
S1131F708407950720F079F4A6F50C9435110EF436
S1131F80E0950B2EBA2FA02D0B01B90190010C0185
S1131F90CA01A0011124FF27591B99F0593F50F49D
S1131FA0503E68F11A16F040A22F232F342F4427F5
S1131FB0585FF3CF469537952795A795F0405395ED
S1131FC0C9F77EF41F16BA0B620B730B840BBAF0BD
S1131FD09150A1F0FF0FBB1F661F771F881FC2F728
S1131FE00EC0BA0F621F731F841F48F4879577953C
S1131FF06795B795F7959E3F08F0B0CF9395880FF6
S113200008F09927EE0F9795879508950E941A1066
S11320100C9402110E94FB1058F00E94F41040F03E
S113202029F45F3F29F00C94EB1051110C943611F4
S11320300C94F1100E94131168F39923B1F3552302
S113204091F3951B550BBB27AA27621773078407C7
S113205038F09F5F5F4F220F331F441FAA1FA9F35D
S113206035D00E2E3AF0E0E832D091505040E6954B
S1132070001CCAF72BD0FE2F29D0660F771F881FAC
S1132080BB1F261737074807AB07B0E809F0BB0B9F
S1132090802DBF01FF2793585F4F3AF09E3F5105B3
S11320A078F00C94EB100C9436115F3FE4F3983EF7
S11320B0D4F3869577956795B795F7959F5FC9F79C
S11320C0880F911D9695879597F90895E1E0660F1D
S11320D0771F881FBB1F621773078407BA0720F096
S11320E0621B730B840BBA0BEE1F88F7E0950895FF
S11320F00E947F106894B1110C94361108950E94C7
S11321001B1188F09F5798F0B92F9927B751B0F059
S1132110E1F0660F771F881F991F1AF0BA95C9F767
S113212014C0B13091F00E943511B1E008950C94BF
S11321303511672F782F8827B85F39F0B93FCCF372
S1132140869577956795B395D9F73EF490958095E4
S1132150709561957F4F8F4F9F4F0895E89409C004
S113216097FB3EF490958095709561957F4F8F4FC6
S11321709F4F9923A9F0F92F96E9BB279395F695DC
S1132180879577956795B795F111F8CFFAF4BB0F5A
S113219011F460FF1BC06F5F7F4F8F4F9F4F16C0BE
S11321A0882311F096E911C0772321F09EE8872F48
S11321B0762F05C0662371F096E8862F70E060E004
S11321C02AF09A95660F771F881FDAF7880F96957D
S11321D0879597F9089597F99F6780E870E060E024
S11321E008959FEF80EC089500240A9416161706AC
S11321F018060906089500240A94121613061406F4
S113220005060895092E0394000C11F4882352F056
S1132210BB0F40F4BF2B11F460FF04C06F5F7F4F0E
S11322208F4F9F4F089557FD9058440F551F59F0F5
S11322305F3F71F04795880F97FB991F61F09F3FAF
S113224079F087950895121613061406551FF2CFD8
S11322504695F1DF08C0161617061806991FF1CF28
S113226086957105610508940895E894BB2766274F
S11322707727CB0197F908950E944F110C9402110E
S11322800E94F41038F00E94FB1020F0952311F006
S11322900C94EB100C94F11011240C9436110E9440
S11322A0131170F3959FC1F3950F50E0551F629F72
S11322B0F001729FBB27F00DB11D639FAA27F00D9B
S11322C0B11DAA1F649F6627B00DA11D661F829FC2
S11322D02227B00DA11D621F739FB00DA11D621FA7
S11322E0839FA00D611D221F749F3327A00D611DC4
S11322F0231F849F600D211D822F762F6A2F1124A6
S11323009F5750409AF0F1F088234AF0EE0FFF1FD8
S1132310BB1F661F771F881F91505040A9F79E3F2F
S1132320510580F00C94EB100C9436115F3FE4F3EC
S1132330983ED4F3869577956795B795F795E79585
S11323409F5FC1F7FE2B880F911D9695879597F98E
S1132350089597FB072E16F4009407D077FD09D053
S11323600E94CC1107FC05D03EF4909581959F4FB7
S11323700895709561957F4F0895A29FB001B39F12
S1132380C001A39F700D811D1124911DB29F700D7A
S1132390811D1124911D0895AA1BBB1B51E107C087
S11323A0AA1FBB1FA617B70710F0A61BB70B881FE1
S11323B0991F5A95A9F780959095BC01CD01089570
S11323C00F931F93CF93DF938230910510F482E033
S11323D090E0E0916E04F0916F0420E030E0A0E022
S11323E0B0E0309719F1408151810281138148177F
S11323F05907C8F08417950769F4109731F01296BD
S11324000C93129713961C9327C000936E04109399
S11324106F0422C02115310519F04217530718F42F
S11324209A01BD01EF01DF01F801DBCF2115310570
S1132430F9F0281B390B2430310580F48A819B8103
S11324406115710521F0FB019383828304C090938D
S11324506F0480936E04FE01329644C0FE01E20FC5
S1132460F31F8193919322503109398328833AC011
S113247020916C0430916D04232B41F420910201CE
S11324803091030130936D0420936C04209100017A
S1132490309101012115310541F42DB73EB740912A
S11324A0040150910501241B350BE0916C04F0915B
S11324B06D04E217F307A0F42E1B3F0B281739070E
S11324C078F0AC014E5F5F4F2417350748F04E0F8C
S11324D05F1F50936D0440936C048193919302C0E9
S11324E0E0E0F0E0CF01DF91CF911F910F910895CB
S11324F0CF93DF93009709F481C0FC0132971382D4
S11325001282A0916E04B0916F04109781F420811F
S11325103181820F931F20916C0430916D04281730
S1132520390751F5F0936D04E0936C0467C0ED0135
S113253020E030E0CE17DF0740F44A815B819E0142
S113254041155105F1F0EA01F5CFD383C2834081EF
S11325505181840F951FC817D90759F4888199812F
S1132560840F951F0296918380838A819B81938334
S113257082832115310529F4F0936F04E0936E04EE
S11325803DC0E901FB83EA8349915991C40FD51FEA
S1132590EC17FD0761F480819181840F951F0296E9
S11325A0E90199838883828193819B838A83E0E014
S11325B0F0E012968D919C911397009719F0FD010C
S11325C0DC01F7CF8D919C9111979D012E5F3F4FB8
S11325D0820F931F20916C0430916D0428173907E2
S11325E069F4309729F410926F0410926E0402C0BB
S11325F013821282B0936D04A0936C04DF91CF9187
S11326000895A0E0B0E0E7E0F3E10C94CE19EC010A
S1132610009721F4CB010E94E011B4C0FC01E60F45
S1132620F71F9C0122503109E217F30708F4A8C0F0
S1132630D9010D911C91119706171707B0F00530B9
S1132640110508F49BC0C80104978617970708F47E
S113265095C002501109061B170B019311936D933A
S11326607C93CF010E94781289C05B01A01AB10A41
S11326704C01800E911EA0916E04B0916F04612CE8
S1132680712CE12CF12C109709F446C08D919C918A
S11326901197A815B905B1F56C0142E0C40ED11C1F
S11326A0CA14DB0478F14C018A189B08640142E0E7
S11326B0C40ED11C1296BC9012971396AC91B5E03F
S11326C0CB16D10440F0B282A38391828082D901D7
S11326D06D937C9309C00E5F1F4F800F911FF9010A
S11326E091838083EB2DFA2FE114F10431F0D701AB
S11326F01396FC93EE93129741C0F0936F04E0930A
S11327006E043CC06816790608F43C017D011296FB
S11327100D90BC91A02DB7CF80916C0490916D0465
S113272088169906E1F466167706C8F480910001CC
S113273090910101009741F48DB79EB74091040137
S113274050910501841B950BE817F907C8F4F09321
S11327506D04E0936C04F901718360830FC0CB01B5
S11327600E94E0117C01009759F0A801BE010E946B
S11327705916CE010E947812C70104C0CE0102C0CE
S113278080E090E0CDB7DEB7EEE00C94EA19A0E06B
S1132790B0E0EDECF3E10C94D019EC016B016115A0
S11327A0710519F0FB01918380837E01FFEFEF1A1D
S11327B0FF0A0881802F90E00E942B16892B11F0CC
S11327C0E701F3CF0D3239F47E0182E0E80EF11C0B
S11327D0098111E008C00B3229F47E0192E0E90E70
S11327E0F11C098110E0E701219743E050E060E724
S11327F070E0CE010E943416892BC1F4239645E083
S113280050E06BE670E0CE010E943416892B09F487
S11328102596C114D10419F0F601D183C083111196
S1132820F6C060E070E080E89FE7FAC043E050E063
S113283068E670E0CE010E943416892B59F4C11465
S1132840D10409F4E9C0F2E0EF0EF11CF601F182C3
S1132850E082E2C020E030E0A901C0E0D0E0F7016E
S113286080EDA82EA00E89E08A1530F1912F926098
S1132870B92E812F887012FF04C0811124C02196C3
S113288022C081112197A5E0B0E00E94BF19DC01AC
S1132890CB01880F991FAA1FBB1F9C01AD012A0DF4
S11328A0311D411D511D283989E93807480789E13F
S11328B0580748F0166006C09EEFA9120AC013FD1F
S11328C040C01860B12E8FEFE81AF80A00811B2D62
S11328D0C6CF802F8F7D8534A1F580818D3211F490
S11328E0106106C08B3221F0319661E070E004C0C3
S11328F08181329662E070E080538A3018F0E61BE2
S1132900F70B1FC060E070E060389CE079075CF46E
S1132910DB01AA0FBB1FAA0FBB1F6A0F7B1F660F29
S1132920771F680F711D3196DF0111978C918053C9
S11329308A3050F314FF03C0719561957109C60F75
S1132940D71F11FF08C0C114D10429F0CF0101978A
S1132950F60191838083CA01B9010E94AE10212F30
S11329602370233019F04B015C0106C04B015C015C
S1132970B7FAB094B7F8B09420E030E0A901C501EB
S1132980B4010E94C016882309F43EC0D7FF06C0D4
S1132990D195C195D10907E810E002C00FE910E014
S11329A06801F8E1CF1AD10890E2E92EF12CCE1596
S11329B0DF0574F0F8012591359145915491C501D5
S11329C0B4010E943C114B015C01CE19DF09EFCF29
S11329D004501109F594E7940C151D0541F78A2D4F
S11329E0880F8B2D881F8F3F49F020E030E0A9012C
S11329F0C501B4010E94C016811106C082E290E0B4
S1132A009093710480937004C501B40109C060E01F
S1132A1070E080E89FEF04C060E070E080EC9FE726
S1132A20CDB7DEB7ECE00C94EC19A0E0B0E0EBE13C
S1132A30F5E10C94CB195C016B017A016115710508
S1132A4019F0FB0191838083E114F10429F0C7019B
S1132A500297839708F0E5C0E5012196F5011081FE
S1132A60812F90E00E942B16892B11F05E01F4CF88
S1132A701D3229F42196F501118101E007C01B32B2
S1132A8021F4E5012296F501118100E0E114F1043D
S1132A9009F1F0E1EF16F10429F43FC010E3E11469
S1132AA0F10421F128E0E216F10401F154F4E2E02A
S1132AB0EE16F10421F5812C912CA12CB0E4BB2E4F
S1132AC03EC0FAE0EF16F10439F020E1E216F10419
S1132AD0B1F430C0103319F1FAE0EF2EF12CACEC64
S1132AE08A2E982CA82CACE0BA2E29C078E0E72EC8
S1132AF0F12C812C912CA12CE0E1BE2E20C060E0B1
S1132B0070E080E090E897010F2C000C440B550B0B
S1132B100E949D1949015A0112C0103359F4888149
S1132B208F7D883509F0BACF19812296026080E141
S1132B30E82EF12C812C912CA12C68E0B62E40E0DB
S1132B4060E070E0CB0127010F2C000C66087708C9
S1132B50FE0150ED352E310E29E0231570F42FEBD4
S1132B60210F2A3118F439EC332E06C02FE9210F36
S1132B702A3118F529EA322E310E232D30E02E1594
S1132B803F05DCF447FD16C086169706A806B9066D
S1132B9070F0A30192010E948D19630D711D811DB6
S1132BA0911D61307105810520E8920710F04FEF07
S1132BB001C041E021961081CBCF202F2170C11498
S1132BC0D10471F0442329F02197F601D183C08305
S1132BD007C001FF19C02297F601D183C08314C036
S1132BE047FF12C0222329F060E070E080E090E803
S1132BF004C06FEF7FEF8FEF9FE722E230E0309366
S1132C0071042093700409C0222381F0909580956B
S1132C10709561957F4F8F4F9F4F462F372F282FE9
S1132C2012C040E030E020E090E00DC097FFF5CF07
S1132C3082E290E090937104809370046FEF7FEFD1
S1132C408FEF9FE7EACF642F732F822FCDB7DEB7C4
S1132C50E1E10C94E71991110C94CA18803219F02F
S1132C6089508550C8F70895FB01DC01415050405C
S1132C7088F08D9181341CF08B350CF4805E659165
S1132C8061341CF06B350CF4605E861B611171F3CA
S1132C90990B0895881BFCCFFB01DC0104C08D91C6
S1132CA00190801921F441505040C8F7881B990BBA
S1132CB00895FB01DC0102C001900D924150504087
S1132CC0D8F70895FB01DC018D9101908019011062
S1132CD0D9F3990B0895BB274A3031F4992322F490
S1132CE0BDE2909581959F4F0C947716BB27FB010D
S1132CF05527AA27880F991FAA1FA41710F0A41BF1
S1132D0083955051B9F7A05DAA3308F0A95DA1934A
S1132D10009779F7B111B1931192CB010C94E31898
S1132D20AEE0B0E0E6E9F6E10C94D8190D891E890D
S1132D308F89988D26E02C831A83098397FF02C01C
S1132D4080E090E801979E838D83AE01455E5F4FDE
S1132D50698D7A8DCE0101960E94E9164D815E81BE
S1132D6057FD0AC02F813885421753070CF49A0186
S1132D70F801E20FF31F10822E96E4E00C94F4198C
S1132D800E94C51608F481E00895990F0008550FB4
S1132D90AA0BE0E8FEEF16161706E807F907C0F0DD
S1132DA012161306E407F50798F0621B730B840BE5
S1132DB0950B39F40A2661F0232B242B252B21F4BF
S1132DC008950A2609F4A140A6958FEF811D811D5F
S1132DD00895ABE0B0E0EFEEF6E10C94CA196C0193
S1132DE07B018A01FC0117821682838181FFCCC199
S1132DF0CE0101963C01F6019381F70193FD859183
S1132E0093FF81917F01882309F4BAC1853239F493
S1132E1093FD859193FF81917F01853229F4B60159
S1132E2090E00E94F318E7CF912C212C312CFFE184
S1132E30F315D8F08B3279F038F4803279F083329C
S1132E40A1F4232D20611DC08D3261F0803369F41B
S1132E50232D216016C0832D8260382EE32DE4607B
S1132E603E2E2AC0F32DF8601DC037FC2DC020ED86
S1132E70280F2A3040F08E32B9F436FC81C1232D5C
S1132E802064322E19C036FE06C08AE0989E200DBA
S1132E901124922E11C0EAE02E9E200D1124222E20
S1132EA0F32DF0623F2E08C08C3621F4832D806808
S1132EB0382E02C0883641F4F70193FD859193FFC3
S1132EC081917F018111B3CF982F9F7D95549330C9
S1132ED028F40C5F1F4F9FE399830DC0833631F0B4
S1132EE0833771F0833509F059C021C0F80180811E
S1132EF089830E5F1F4F88248394912C530113C040
S1132F002801F2E04F0E511CF801A080B18036FE7A
S1132F1003C0692D70E002C06FEF7FEFC5010E940E
S1132F20D8184C018201F32DFF773F2E16C02801DB
S1132F3022E0420E511CF801A080B18036FE03C08D
S1132F40692D70E002C06FEF7FEFC5010E94CD18BC
S1132F504C01F32DF0683F2E820133FC1BC0822DFF
S1132F6090E088169906B0F4B60180E290E00E94E1
S1132F70F3182A94F4CFF50137FC859137FE81913B
S1132F805F01B60190E00E94F31821102A9421E019
S1132F90821A91088114910471F7E8C0843611F003
S1132FA0893641F5F80137FE07C06081718182815D
S1132FB093810C5F1F4F08C060817181072E000C44
S1132FC0880B990B0E5F1F4FF32DFF763F2E97FF53
S1132FD009C090958095709561957F4F8F4F9F4F55
S1132FE0F0683F2E2AE030E0A3010E942F19882EBA
S1132FF0861845C0853731F4232D2F7EB22E2AE062
S113300030E025C0932D997FB92E8F36C1F018F486
S1133010883579F0B5C0803719F0883721F0B0C011
S1133020E92FE061BE2EB4FE0DC0FB2DF460BF2E6F
S113303009C034FE0AC0292F2660B22E06C028E03B
S113304030E005C020E130E002C020E132E0F801C8
S1133050B7FE07C060817181828193810C5F1F4F2D
S113306006C06081718180E090E00E5F1F4FA30174
S11330700E942F19882E8618FB2DFF773F2E36FECF
S11330800DC0232D2E7FA22E891458F434FE0BC0BC
S113309032FC09C0832D8E7EA82E05C0B82CA32C2B
S11330A003C0B82C01C0B92CA4FE0FC0FE01E80D6A
S11330B0F11D8081803321F49A2D997EA92E09C0B7
S11330C0A2FE06C0B394B39404C08A2D867809F096
S11330D0B394A3FC11C0A0FE06C0B21488F4280C5B
S11330E0922C9B180EC0B21460F4B60180E290E0FA
S11330F00E94F318B394F7CFB21418F42B1802C03B
S1133100982C212CA4FE10C0B60180E390E00E940C
S1133110F318A2FE17C0A1FC03C088E790E002C028
S113312088E590E0B6010CC08A2D867859F0A1FE9E
S113313002C08BE201C080E2A7FC8DE2B60190E000
S11331400E94F318891438F4B60180E390E00E94D9
S1133150F3189A94F7CF8A94F301E80DF11D808156
S1133160B60190E00E94F3188110F5CF222009F4F3
S113317042CEB60180E290E00E94F3182A94F6CF82
S1133180F6018681978102C08FEF9FEF2B96E2E1D3
S11331900C94E619992788270895FC01059061503D
S11331A070400110D8F7809590958E0F9F1F089559
S11331B0FC016150704001900110D8F78095909502
S11331C08E0F9F1F0895DC01FC01672F71917723F7
S11331D0E1F7329704C07C916D9370836291AE17CE
S11331E0BF07C8F308950F931F93CF93DF93FB0199
S11331F0238121FD03C08FEF9FEF2CC022FF16C057
S113320046815781248135814217530744F4A081B4
S1133210B1819D012F5F3F4F318320838C932681A1
S113322037812F5F3F4F3783268314C08B01EC0116
S1133230FB010084F185E02D0995892BE1F6D80185
S113324016968D919C911797019617969C938E9341
S11332501697CE01DF91CF911F910F910895FA0136
S1133260AA27283051F1203181F1E8946F936E7FC1
S11332706E5F7F4F8F4F9F4FAF4FB1E03ED0B4E0B2
S11332803CD0670F781F891F9A1FA11D680F791FF3
S11332908A1F911DA11D6A0F711D811D911DA11D04
S11332A020D009F468943F912AE0269F1124301914
S11332B0305D3193DEF6CF010895462F4770405DAF
S11332C04193B3E00FD0C9F7F6CF462F4F70405D5E
S11332D04A3318F0495D31FD4052419302D0A9F7B9
S11332E0EACFB4E0A6959795879577956795BA95B3
S11332F0C9F700976105710508959B01AC010A2E79
S113330006945795479537952795BA95C9F7620F4F
S1133310731F841F951FA01D0895DB018F939F9336
S11333200E94BF19BF91AF91A29F800D911DA39FD1
S1133330900DB29F900D11240895A1E21A2EAA1B9C
S1133340BB1BFD010DC0AA1FBB1FEE1FFF1FA21751
S1133350B307E407F50720F0A21BB30BE40BF50B4E
S1133360661F771F881F991F1A9469F760957095D7
S1133370809590959B01AC01BD01CF0108950E94F9
S1133380BD11A59F900DB49F900DA49F800D911D1C
S1133390112408952F923F924F925F926F927F92E1
S11333A08F929F92AF92BF92CF92DF92EF92FF9251
S11333B00F931F93CF93DF93CDB7DEB7CA1BDB0BFD
S11333C00FB6F894DEBF0FBECDBF09942A883988A2
S11333D048885F846E847D848C849B84AA84B984A9
S11333E0C884DF80EE80FD800C811B81AA81B981B5
S11333F0CE0FD11D0FB6F894DEBF0FBECDBFED01C9
S10934000895F894FFCFCB
S1133406000072042000000000005354415254206E
S11334164F46204359434C450A0D00080C0A0D0932
S11334265C222F0062666E72745C222F00747275C1
S113343665006E756C6C0066616C736500256400CE
S113344625670022005C00414243444546474849FB
S11334564A4B4C4D4E4F505152535455565758594A
S11334665A6162636465666768696A6B6C6D6E6FE0
S1133476707172737475767778797A303132333441
S113348635363738392B2F002E2A51002E2A730051
S113349675736572005600766F6C7400410063752F
S11334A6727200487A00667265710057007077720E
S11334B600706172616D00312E352E3100766572B1
S11334C600637572006D66630033007B25513A20F4
S11334D67B25513A207B25513A2025512C20255114
S11334E63A2025517D2C2025513A2025512C202582
S11334F6513A207B25513A202225732573222C200C
S113350625513A202225732573222C2025513A2051
S11335162225732573222C2025513A202225732532
S113352673227D2C2025513A207B2025513A2025D3
S1133536517D7D7D00242E332E6D66632E7265715A
S113354600242E332E757365722E666F72636500C2
S10735566F6E000090
S9030000FC
