S01F00004C696E6561725F4D6F746F725F436F6E74726F6C6C65722E73726563B7
S11300000C9434000C9451000C9451000C94510045
S11300100C9451000C9451000C9451000C94C002A7
S11300200C9402030C9451000C9451000C94DC02C7
S11300300C9465030C9451000C9451000C945100E1
S11300400C9451000C9451000C94EC000C9451004D
S11300500C9451000C946A000C9451000C945100BF
S11300600C9451000C94510011241FBECFEFD8E022
S1130070DEBFCDBF11E0A0E0B1E0EAEFFBE002C0DB
S113008005900D92A834B107D9F722E0A8E4B1E0B5
S113009001C01D92A53FB207E1F70E944B010C94E9
S11300A0FB050C940000EAE7F0E080818660808321
S11300B08081806880838081886080838081806281
S11300C0808380818064808308951092EA01109275
S11300D0EB0108951F920F920FB60F9211240F9304
S11300E01F932F933F934F935F936F937F938F93BC
S11300F09F93AF93BF93EF93FF93CF93DF93CDB7CA
S1130100DEB72597DEBFCDBF80917800909179004E
S1130110E0E5F1E08083E081F0E08F01169507953A
S1130120169507959801ABE7B4E10E94EC05AC0184
S11301305695479524E6249FC001259F900D1124D0
S1130140AF01481B590B80E3898398010E94EC0599
S113015096958795805D8A839A01ADECBCEC0E94EC
S1130160EC0596958795969587959695879520E3C2
S1130170280F2B839C01220F331F880F991F880F90
S1130180991F880F991F820F931F481B590B405DBD
S11301904C831D82CE0101960E949D0384E491E06C
S11301A00E949D030F900F900F900F900F90DF917E
S11301B0CF91FF91EF91BF91AF919F918F917F91DB
S11301C06F915F914F913F912F911F910F910F90DC
S11301D00FBE0F901F9018951F920F920FB60F929B
S11301E011248F939F93EF93FF938091C600909176
S11301F04A01911147C08B3749F490914B019F5F9D
S113020090934B0191E09093480112C08D3781F493
S113021090914801913061F490914B0191509093E9
S11302204B0190914B01911103C091E090934A01CD
S1130230909148019130A9F4E0914C01F0E0EC5028
S1130240FE4F808380914C018F5F80934C0180919D
S11302504A01813031F4E0914C01F0E0EC50FE4F62
S1130260108280914C018E3F21F080914B018430AB
S113027048F081E0809349011092480110924A01AC
S113028010924C01FF91EF919F918F910F900FBEAF
S11302900F901F90189583E390E00E948803789450
S11302A0E091F201F091F30180E090E0A8E4B1E480
S11302B080839183A283B383E091F001F091F101F3
S11302C010820E94E101E091F001F091F10180813E
S11302D0811103C00E9499020BC04081E091F20198
S11302E0F091F30160817181828193810E94FF0109
S11302F00E9453008091F2019091F3010E946500E5
S113030081E08093EF01C1ECD0E080914D0188231E
S113031051F08091EF01882331F086E990E010924A
S1130320EF010197E1F780914A01813081F58881DD
S11303308F7E888380E091E00E949D0384EF91E0AA
S11303400E949D036091F0017091F10184EF91E0AE
S11303500E94B303E091F001F091F1014081E0913A
S1130360F201F091F30160817181828193810E9495
S1130370FF0184E491E00E949D0310924A011092CF
S1130380480110924C01888180618883BECF80919E
S11303904901813009F0B9CF88818F7E888380E05C
S11303A091E00E949D0389E191E00E949D031092D7
S11303B049011092480110924B0188818061888321
S11303C0A4CFE1EBF0E080818160808380E48093BE
S11303D0B30080E18093B400E1E8F0E080818260C2
S11303E08083209A8AB1806E8AB9289A5E9A5D9831
S11303F05F981092E60181E08093EE0108954F9298
S11304005F926F927F928F929F92AF92BF92CF92A0
S1130410DF92EF92FF926B017C01842F90E0909326
S1130420F4028093F302642F70E080E090E00E9475
S1130430F10420E030E04FE753E40E9450042B0124
S11304403C01A7019601C701B6010E94E4039B0188
S1130450AC0160E070E08AE794E40E9450044B0130
S11304605C019B01AC01C301B2010E947F056B01D9
S11304707C01A301920160E070E080E89FE30E94A8
S1130480E303A50194010E947F05A70196010E9440
S1130490E40320E030E0A9010E94E40320E030E01E
S11304A04AE754E40E947F050E94C2047093ED0160
S11304B06093EC0120E030E04AE754E4C701B60160
S11304C00E947F050E94C20470934F0160934E0105
S11304D01092E70181E08093E6018091EE01882388
S11304E091F08091EC019091ED01909389008093BB
S11304F0880080914E0190914F0190938B008093DE
S11305008A001092EE01EFE6F0E08081866080833D
S11305101092850010928400FF90EF90DF90CF90AE
S1130520BF90AF909F908F907F906F905F904F900F
S1130530089528988FE19EE40197F1F700C0000028
S11305405D988FE19EE40197F1F700C000005F9A87
S11305508FE19EE40197F1F700C000005E9AEFE698
S1130560F0E080818B7F808380818D7F8083E0E7D2
S1130570F0E080818D7F808380818B7F80830895EC
S11305801F920F920FB60F9211248F93EF93FF9344
S1130590E0E7F0E080818D7F80838091E701811125
S11305A002C05F9A01C05E9AFF91EF918F910F9004
S11305B00FBE0F901F9018951F920F920FB60F92B7
S11305C011248F93EF93FF938091E701811102C06F
S11305D05E9801C05F98EFE6F0E080818D7F8083B4
S11305E080818B7F8083E0E7F0E08081846080837A
S11305F01092B200FF91EF918F910F900FBE0F9068
S11306001F9018951F920F920FB60F9211248F937B
S11306109F93EF93FF93E0E7F0E080818B7F8083EB
S11306208091F3029091F402892BC1F480818D7F33
S1130630808380818B7F8083EFE6F0E080818D7FF3
S1130640808380818B7F80835F985E9828985D98F3
S11306505F9A5E9A81E08093EE012EC08091E7015B
S1130660811105C05D9A81E08093E70103C0289A57
S11306701092E7018091E601882391F08091EC01CA
S11306809091ED01909389008093880080914E01B0
S113069090914F0190938B0080938A001092E60111
S11306A0EFE6F0E0808184608083808182608083D3
S11306B01092850010928400FF91EF919F918F9189
S11306C00F900FBE0F901F9018951F920F920FB6A8
S11306D00F9211248F93EF93FF93EFE6F0E0808164
S11306E08B7F80838091E701811102C0289801C02B
S11306F05D98E0E7F0E08081826080831092B20030
S1130700FF91EF918F910F900FBE0F901F9018954E
S11307101092C0008093C400E1ECF0E08081886016
S11307208083808180618083808180688083E2EC23
S1130730F0E08081866080830895CF93DF93FC018D
S11307402081222369F0DC011196E0ECF0E0C6EC94
S1130750D0E0908195FFFDCF28832D912111F9CF11
S1130760DF91CF9108950F931F93CF93DF938B0164
S1130770FC013196AC014C5F5F4FC0E0D0E09E01BC
S1130780220F331FCC0FDD1FCC0FDD1FCC0FDD1F5D
S1130790C20FD31F219130E020533109C20FD31F60
S11307A0E417F50761F7FC018181803721F489E3BF
S11307B091E00E949D03F801D183C083DF91CF9122
S11307C01F910F9108955058BB27AA270E94FB033D
S11307D00C9445050E94370538F00E943E0520F030
S11307E039F49F3F19F426F40C9434050EF4E09583
S11307F0E7FB0C942E05E92F0E94560558F3BA170F
S1130800620773078407950720F079F4A6F50C9422
S113081078050EF4E0950B2EBA2FA02D0B01B9012B
S113082090010C01CA01A0011124FF27591B99F062
S1130830593F50F4503E68F11A16F040A22F232F6E
S1130840342F4427585FF3CF469537952795A795BE
S1130850F0405395C9F77EF41F16BA0B620B730B65
S1130860840BBAF09150A1F0FF0FBB1F661F771FD6
S1130870881FC2F70EC0BA0F621F731F841F48F48B
S1130880879577956795B795F7959E3F08F0B0CF14
S11308909395880F08F09927EE0F979587950895FB
S11308A00E9464040C9445050E943E0558F00E9481
S11308B0370540F029F45F3F29F00C942E055111BF
S11308C00C9479050C9434050E94560568F3992319
S11308D0B1F3552391F3951B550BBB27AA27621738
S11308E07307840738F09F5F5F4F220F331F441F45
S11308F0AA1FA9F335D00E2E3AF0E0E832D0915079
S11309005040E695001CCAF72BD0FE2F29D0660F65
S1130910771F881FBB1F261737074807AB07B0E8A8
S113092009F0BB0B802DBF01FF2793585F4F3AF0AE
S11309309E3F510578F00C942E050C9479055F3F89
S1130940E4F3983ED4F3869577956795B795F79534
S11309509F5FC9F7880F911D9695879597F908951C
S1130960E1E0660F771F881FBB1F621773078407B8
S1130970BA0720F0621B730B840BBA0BEE1F88F7C7
S1130980E09508950E945E0588F09F5798F0B92F6E
S11309909927B751B0F0E1F0660F771F881F991FB0
S11309A01AF0BA95C9F714C0B13091F00E947805D5
S11309B0B1E008950C947805672F782F8827B85FE5
S11309C039F0B93FCCF3869577956795B395D9F708
S11309D03EF490958095709561957F4F8F4F9F4F12
S11309E00895E89409C097FB3EF49095809570951E
S11309F061957F4F8F4F9F4F9923A9F0F92F96E967
S1130A00BB279395F695879577956795B795F111DB
S1130A10F8CFFAF4BB0F11F460FF1BC06F5F7F4F78
S1130A208F4F9F4F16C0882311F096E911C077238A
S1130A3021F09EE8872F762F05C0662371F096E893
S1130A40862F70E060E02AF09A95660F771F881F62
S1130A50DAF7880F9695879597F9089597F99F6720
S1130A6080E870E060E008959FEF80EC0895002432
S1130A700A941616170618060906089500240A94FF
S1130A8012161306140605060895092E0394000C85
S1130A9011F4882352F0BB0F40F4BF2B11F460FF14
S1130AA004C06F5F7F4F8F4F9F4F089557FD90583D
S1130AB0440F551F59F05F3F71F04795880F97FB1E
S1130AC0991F61F09F3F79F08795089512161306D8
S1130AD01406551FF2CF4695F1DF08C01616170607
S1130AE01806991FF1CF869571056105089408953C
S1130AF0E894BB2766277727CB0197F908950E94CE
S1130B0092050C9445050E94370538F00E943E0575
S1130B1020F0952311F00C942E050C943405112427
S1130B200C9479050E94560570F3959FC1F3950FB7
S1130B3050E0551F629FF001729FBB27F00DB11D5D
S1130B40639FAA27F00DB11DAA1F649F6627B00DED
S1130B50A11D661F829F2227B00DA11D621F739FD6
S1130B60B00DA11D621F839FA00D611D221F749FE4
S1130B703327A00D611D231F849F600D211D822F2B
S1130B80762F6A2F11249F5750409AF0F1F0882352
S1130B904AF0EE0FFF1FBB1F661F771F881F91507F
S1130BA05040A9F79E3F510580F00C942E050C94FB
S1130BB079055F3FE4F3983ED4F38695779567957E
S1130BC0B795F795E7959F5FC1F7FE2B880F911DA9
S1130BD09695879597F90895A29FB001B39FC00198
S1130BE0A39F700D811D1124911DB29F700D811D55
S10D0BF01124911D0895F894FFCF1D
S1130BFA0A0D46726F6D204D6963726F636F6E746E
S1130C0A726F6C6C65723A20004572726F722120A1
S1130C1A54686520636F6D6D616E64206973206921
S1130C2A6E76616C69640A0D000A0D697473206832
S10B0C3A657265210A0D00003A
S9030000FC
