S01F00004C696E6561725F4D6F746F725F436F6E74726F6C6C65722E73726563B7
S11300000C9434000C9446000C9446000C94460066
S11300100C9446000C9446000C9446000C94460044
S11300200C9446000C9446000C9446000C94D001A9
S11300300C9487010C9446000C9464010C943701D1
S11300400C9446000C9446000C9446000C94460014
S11300500C9446000C9446000C9446000C94460004
S11300600C9446000C94460011241FBECFEFD8E038
S1130070DEBFCDBF21E0A0E0B1E001C01D92AB30F6
S1130080B207E1F70E94EE010C9453040C940000B3
S113009085B5816085BD80ED87BD88E188BDE1E8D7
S11300A0F0E0808182608083809107019091080153
S11300B090938B0080938A0081E084B980EE8AB9A2
S11300C028985D985F9880E48BB908954F925F9269
S11300D06F927F928F929F92AF92BF92CF92DF9254
S11300E0EF92FF92CF93DF9369017A010F2EFDEC1B
S11300F08F2EFCEC9F2EFCE4AF2EFEE3BF2EF02DE2
S11301008092010190920201A0920301B092040135
S1130110409001015090020160900301709004012D
S11301209B01AC0160E070E080E89FE30E946A02FA
S11301304B015C0120E030E040E850E4C701B60127
S11301400E9499039B01AC01C501B4010E94FD0109
S113015020E030E048E453E40E94FE014B015C01DE
S113016020E030E040E850E4C301B2010E94FE0107
S11301709B01AC01C501B4010E946A024B015C0100
S11301800E9406040E94DC0270930601609305013C
S11301906091010170910201809103019091040129
S11301A020E030E040E85FE30E94FE01A5019401F5
S11301B00E9499030E9406040E94DC0270930A01C3
S11301C060930901C0910501D091060120E030E05F
S11301D048E452E4C701B6010E94FD019B01AC0151
S11301E00E94FE016B017C01BE0180E090E00E9450
S11301F00B039B01AC01C701B6010E94FE010E94E2
S1130200DC027093080160930701809107019091CB
S1130210080190938B0080938A002091070130910C
S113022008018091050190910601820F931F805867
S1130230994F9093890080938800DF91CF91FF902C
S1130240EF90DF90CF90BF90AF909F908F907F9072
S11302506F905F904F9008957894EFE6F0E080817E
S11302608660808395B181E0892785B908951F92BE
S11302700F920FB60F9211248F939F93EF93FF93D6
S1130280EEE6F0E080818B7F80838091000181E045
S11302908093000180910001882329F09BB180E2C2
S11302A089278BB904C095B181E0892785B910925B
S11302B0850010928400FF91EF919F918F910F9090
S11302C00FBE0F901F9018951F920F920FB60F92AA
S11302D011248F939F93EF93FF93EEE6F0E08081D8
S11302E08D7F808380910001882329F09BB180E475
S11302F089278BB903C08BB180588BB9FF91EF91DB
S11303009F918F910F900FBE0F901F9018951F9281
S11303100F920FB60F9211242F933F938F939F93B5
S1130320EF93FF93809100018823A9F09BB180E2B1
S113033089278BB92091070130910801809105012B
S113034090910601820F931F805C984F90938900CF
S11303508093880014C02091070130910801809196
S1130360090190910A01820F931F805C984F90932A
S113037089008093880095B181E0892785B916BCEE
S1130380EEE6F0E0808182608083FF91EF919F919F
S11303908F913F912F910F900FBE0F901F90189542
S11303A01F920F920FB60F9211248F939F938091F7
S11303B00001882321F08BB180588BB904C09BB114
S11303C080E489278BB916BC84E080936E009F91EA
S11303D08F910F900FBE0F901F90189520E030E082
S11303E048E452E460E070E080E491E40E94660036
S11303F00E9448000E942C01FFCF5058BB27AA2717
S11304000E9415020C945F030E94510338F00E946D
S1130410580320F039F49F3F19F426F40C944E034A
S11304200EF4E095E7FB0C944803E92F0E94700357
S113043058F3BA17620773078407950720F079F415
S1130440A6F50C9492030EF4E0950B2EBA2FA02D72
S11304500B01B90190010C01CA01A0011124FF276D
S1130460591B99F0593F50F4503E68F11A16F04068
S1130470A22F232F342F4427585FF3CF4695379567
S11304802795A795F0405395C9F77EF41F16BA0B2C
S1130490620B730B840BBAF09150A1F0FF0FBB1FDA
S11304A0661F771F881FC2F70EC0BA0F621F731F23
S11304B0841F48F4879577956795B795F7959E3F80
S11304C008F0B0CF9395880F08F09927EE0F979511
S11304D0879508950E947E020C945F030E9458033E
S11304E058F00E94510340F029F45F3F29F00C9426
S11304F0480351110C9493030C944E030E9470030F
S113050068F39923B1F3552391F3951B550BBB273E
S1130510AA2762177307840738F09F5F5F4F220F83
S1130520331F441FAA1FA9F335D00E2E3AF0E0E87A
S113053032D091505040E695001CCAF72BD0FE2FC4
S113054029D0660F771F881FBB1F26173707480758
S1130550AB07B0E809F0BB0B802DBF01FF27935810
S11305605F4F3AF09E3F510578F00C9448030C9489
S113057093035F3FE4F3983ED4F3869577956795AC
S1130580B795F7959F5FC9F7880F911D9695879545
S113059097F90895E1E0660F771F881FBB1F621764
S11305A073078407BA0720F0621B730B840BBA0B22
S11305B0EE1F88F7E09508950E94780388F09F570E
S11305C098F0B92F9927B751B0F0E1F0660F771F73
S11305D0881F991F1AF0BA95C9F714C0B13091F069
S11305E00E949203B1E008950C949203672F782F30
S11305F08827B85F39F0B93FCCF38695779567952E
S1130600B395D9F73EF490958095709561957F4F99
S11306108F4F9F4F0895E89409C097FB3EF490953F
S11306208095709561957F4F8F4F9F4F9923A9F0C7
S1130630F92F96E9BB279395F69587957795679556
S1130640B795F111F8CFFAF4BB0F11F460FF1BC09A
S11306506F5F7F4F8F4F9F4F16C0882311F096E92D
S113066011C0772321F09EE8872F762F05C06623DB
S113067071F096E8862F70E060E02AF09A95660F94
S1130680771F881FDAF7880F9695879597F908954D
S113069097F99F6780E870E060E008959FEF80EC31
S11306A0089500240A9416161706180609060895D4
S11306B000240A9412161306140605060895092E3A
S11306C00394000C11F4882352F0BB0F40F4BF2BA9
S11306D011F460FF04C06F5F7F4F8F4F9F4F0895E9
S11306E057FD9058440F551F59F05F3F71F04795DF
S11306F0880F97FB991F61F09F3F79F087950895C4
S1130700121613061406551FF2CF4695F1DF08C0E2
S1130710161617061806991FF1CF869571056105FF
S113072008940895E894BB2766277727CB0197F9A7
S113073008950E94AC030C945F030E94510338F0A7
S11307400E94580320F0952311F00C9448030C9454
S11307504E0311240C9493030E94700370F3959F2D
S1130760C1F3950F50E0551F629FF001729FBB27A4
S1130770F00DB11D639FAA27F00DB11DAA1F649F40
S11307806627B00DA11D661F829F2227B00DA11DF3
S1130790621F739FB00DA11D621F839FA00D611D79
S11307A0221F749F3327A00D611D231F849F600D9A
S11307B0211D822F762F6A2F11249F5750409AF0C3
S11307C0F1F088234AF0EE0FFF1FBB1F661F771F4F
S11307D0881F91505040A9F79E3F510580F00C941A
S11307E048030C9493035F3FE4F3983ED4F3869557
S11307F077956795B795F795E7959F5FC1F7FE2BBA
S1130800880F911D9695879597F908950E9478030E
S1130810E8F09E37E8F09639B8F49E3848F4672F2C
S1130820782F8827985FF9CF869577956795939564
S11308309539D0F3B62FB1706B0F711D811D20F463
S113084087957795679593950C942A040C944504A1
S11308500C949303882371F4772321F09850872B09
S1130860762F07C0662311F499270DC09051862B6B
S113087070E060E02AF09A95660F771F881FDAF718
S1130880880F9695879597F908959F3F31F0915079
S113089020F4879577956795B795880F911D969560
S10D08A0879597F90895F894FFCFA7
S9030000FC
