S01F00004C696E6561725F4D6F746F725F436F6E74726F6C6C65722E73726563B7
S11300000C9434000C9446000C9446000C94460066
S11300100C9446000C9446000C9446000C94460044
S11300200C9446000C9446000C9446000C94460034
S11300300C9446000C9446000C9446000C94460024
S11300400C9446000C9446000C9448000C94460012
S11300500C9446000C9446000C9446000C94460004
S11300600C9446000C94460011241FBECFEFD8E038
S1130070DEBFCDBF21E0A0E0B1E001C01D92A230FF
S1130080B207E1F70E9464000C94A9000C940000EC
S11300901F920F920FB60F9211248F93EF93FF9339
S11300A0E0ECF0E080818823ECF78091C600809337
S11300B0010181E080930001FF91EF918F910F90F6
S11300C00FBE0F901F90189583E390E00E947D006F
S11300D07894C0E0809100018130E1F71092000132
S11300E080910101C81721F0809101010E949B00B9
S11300F0C09101010E949200EDCF1092C000809344
S1130100C400E1ECF0E080818860808380818061BC
S11301108083808180688083E2ECF0E08081866067
S113012080830895E1ECF0E080818F7E808380817C
S1130130806180830895E0ECF0E0908195FFFDCF2D
S1130140EFE1FEE43197F1F700C000008093C600B0
S10901500895F894FFCFAE
S9030000FC
