S01F00004C696E6561725F4D6F746F725F436F6E74726F6C6C65722E73726563B7
S11300000C9434000C9451000C9451000C94510045
S11300100C9451000C9451000C9451000C94510018
S11300200C9451000C9451000C9451000C94510008
S11300300C9451000C9451000C9451000C945100F8
S11300400C9451000C9451000C9453000C945100E6
S11300500C9451000C9451000C9451000C945100D8
S11300600C9451000C94510011241FBECFEFD8E022
S1130070DEBFCDBF11E0A0E0B1E0E0E3F2E002C0FA
S113008005900D92A033B107D9F721E0A0E3B1E0C8
S113009001C01D92A335B207E1F70E94A8000C9499
S11300A016010C9400001F920F920FB60F921124A8
S11300B02F933F938F939F93EF93FF93E0ECF0E0A4
S11300C080818823ECF78091C6008B3759F4209106
S11300D03101309132012F5F3F4F30933201209331
S11300E0310115C08D3799F42091310130913201DD
S11300F02150310930933201209331012091310193
S113010030913201232B19F491E090933001209126
S1130110310130913201232B81F0E0913301F091D0
S11301203401EB5CFE4F8083809133019091340164
S113013001969093340180933301FF91EF919F9145
S11301408F913F912F910F900FBE0F901F90189594
S113015083E390E00E94E3007894E0913301F0910E
S11301603401EB5CFE4F80818D37B9F7F89480E061
S113017091E00E94F8008DE00E940E018AE00E9446
S11301800E0185E391E00E94F80010923401109270
S11301903301109235011092320110923101109204
S11301A030018DE00E940E018AE00E940E0188E178
S11301B091E00E94F8008DE00E940E018AE00E9406
S11301C00E017894CACF1092C0008093C400E1EC71
S11301D0F0E0808188608083808180618083808179
S11301E080688083E2ECF0E08081866080830895FB
S11301F0CF93DF93FC012081222369F0DC01119667
S1130200E0ECF0E0C6ECD0E0908195FFFDCF2883D0
S11302102D912111F9CFDF91CF910895E0ECF0E019
S1130220908195FFFDCF8093C6000895F894FFCF89
S11302304D6573736167652073656E742066726FB4
S11302406D204C4C43207B007D204D6573736167AA
S1130250652073656E742066726F6D204C4C43008C
S9030000FC
