S01F00004C696E6561725F4D6F746F725F436F6E74726F6C6C65722E73726563B7
S11300000C9434000C9451000C9451000C94510045
S11300100C9451000C9451000C9451000C94DB028C
S11300200C941D030C9451000C9451000C94F70291
S11300300C9480030C9451000C9451000C945100C6
S11300400C9451000C9451000C948A000C945100AF
S11300500C9451000C946D000C9451000C945100BC
S11300600C9451000C94510011241FBECFEFD8E022
S1130070DEBFCDBF11E0A0E0B1E0E0E3FCE002C0F0
S113008005900D92A834B107D9F722E0A8E4B1E0B5
S113009001C01D92AD35B207E1F70E94E9000C944E
S11300A016060C940000EAE7F0E080818660808305
S11300B08081806880838081886080838081806281
S11300C08083ACE7B0E08C9181608C938081806404
S11300D0808308951092530108951F920F920FB6D2
S11300E00F9211248F939F938091570181110BC01C
S11300F080917800909179009093520180935101FE
S113010081E0809357019F918F910F900FBE0F90C4
S11301101F9018951F920F920FB60F9211248F9370
S11301209F93EF93FF938091C60090914A019111A0
S113013047C08B3749F490914B019F5F90934B01DB
S113014091E09093480112C08D3781F49091480159
S1130150913061F490914B01915090934B019091A7
S11301604B01911103C091E090934A019091480191
S11301709130A9F4E0914C01F0E0E45AFE4F808301
S113018080914C018F5F80934C0180914A018130B2
S113019031F4E0914C01F0E0E45AFE4F108280917A
S11301A04C018E3F21F080914B01843048F081E076
S11301B0809349011092480110924A0110924C0117
S11301C0FF91EF919F918F910F900FBE0F901F9011
S11301D01895CF93DF9300D000D01F92CDB7DEB730
S11301E083E390E00E94A3037894E0915A01F09194
S11301F05B0180E090E0A8E4B1E480839183A28372
S1130200B383E0915801F091590186E980830E94FB
S11302100102E0915801F09159014081E0915A01A5
S1130220F0915B01608171818281938150E00E9431
S1130230B9020E94530080915A0190915B010E947F
S11302406A000F2EF8EEEF2EF3E0FF2EF02D0F2EA6
S1130250F4E6DF2EF02D01EC10E0809157018823A5
S113026009F47DC040915101509152014A01969484
S1130270879496948794969487949401A5ECB0E21D
S11302800E940706FC01F295E295EF70EF27FF70DC
S1130290EF27EE9DC001EF9D900DFE9D900D112462
S11302A0FA01E81BF90B5F01B694A794B694A794DE
S11302B09501ABE7B4E10E940706AC01569547955A
S11302C0D49EC001D59E900D1124AF01481B590B3B
S11302D09401A5ECB0E20E940706929582958F7076
S11302E089279F708927805D89839501ABE7B4E1F5
S11302F00E94070696958795805D8A839A01ADECE6
S1130300BCEC0E94070696958795969587959695D9
S1130310879520E3280F2B839C01220F331F880F1E
S1130320991F880F991F880F991F820F931F481BCD
S1130330590B405D4C831D82CE0101960E94B80387
S113034084E491E00E94B803109257012FEF81EEEC
S113035094E0215080409040E1F700C0000080917B
S11303604A01813091F5F80180818F7E808380E09D
S113037091E00E94B8038CE591E00E94B80360917B
S11303805801709159018CE591E00E94CE03E091EF
S11303905801F09159014081E0915A01F0915B01BB
S11303A060817181828193810E941F0284E491E0C3
S11303B00E94B80310924A011092480110924C0115
S11303C0F80180818061808348CF80914901813028
S11303D009F043CFF80180818F7E808380E091E033
S11303E00E94B80389E191E00E94B8031092490188
S11303F01092480110924B01F80180818061808342
S11304002CCFE1EBF0E080818160808380E48093F5
S1130410B30080E18093B400E1E8F0E08081826081
S11304208083209A8AB1806E8AB9289A5E9A5D98F0
S11304305F9810924F0181E08093560108954F9286
S11304405F926F927F928F929F92AF92BF92CF9260
S1130450DF92EF92FF926B017C01842F90E09093E6
S11304605C0280935B02642F70E080E090E00E9465
S11304700C0520E030E04FE753E40E946B042B01AD
S11304803C01A7019601C701B6010E94FF039B012D
S1130490AC0160E070E08AE794E40E946B044B01D5
S11304A05C019B01AC01C301B2010E949A056B017E
S11304B07C01A301920160E070E080E89FE30E9468
S11304C0FE03A50194010E949A05A70196010E94CA
S11304D0FF0320E030E0A9010E94FF0320E030E0A8
S11304E04AE754E40E949A050E94DD047093550182
S11304F06093540120E030E04AE754E4C701B601B8
S11305000E949A050E94DD0470934E0160934D0190
S11305101092500181E080934F018091560188230D
S113052091F08091540190915501909389008093AA
S1130530880080914D0190914E0190938B0080939F
S11305408A0010925601EFE6F0E080818660808395
S11305501092850010928400FF90EF90DF90CF906E
S1130560BF90AF909F908F907F906F905F904F90CF
S11305700895CF92DF92EF92FF920F931F93CF9340
S1130580DF934115510571F08A016B017C01C0E0D4
S1130590D0E04C2FC701B6010E941F022196C0175C
S11305A0D107B9F7DF91CF911F910F91FF90EF9091
S11305B0DF90CF9008951F920F920FB60F921124DF
S11305C08F93EF93FF93E0E7F0E080818D7F80834A
S11305D080915001811102C05F9A01C05E9AFF911F
S11305E0EF918F910F900FBE0F901F9018951F924F
S11305F00F920FB60F9211248F93EF93FF93809174
S11306005001811102C05E9801C05F98EFE6F0E0EE
S113061080818D7F808380818B7F8083E0E7F0E021
S11306208081846080831092B200FF91EF918F915A
S11306300F900FBE0F901F9018951F920F920FB638
S11306400F9211248F939F93EF93FF93E0E7F0E0D1
S113065080818B7F808380915B0290915C02892BE7
S1130660C1F480818D7F808380818B7F8083EFE6DE
S1130670F0E080818D7F808380818B7F80835F9891
S11306805E9828985D985F9A5E9A81E080935601FF
S11306902EC080915001811105C05D9A81E0809344
S11306A0500103C0289A1092500180914F01882371
S11306B091F0809154019091550190938900809319
S11306C0880080914D0190914E0190938B0080930E
S11306D08A0010924F01EFE6F0E08081846080830D
S11306E08081826080831092850010928400FF9143
S11306F0EF919F918F910F900FBE0F901F901895BF
S11307001F920F920FB60F9211248F93EF93FF93C2
S1130710EFE6F0E080818B7F80838091500181112E
S113072002C0289801C05D98E0E7F0E08081826013
S113073080831092B200FF91EF918F910F900FBEC2
S11307400F901F9018951092C0008093C400E1ECA4
S1130750F0E08081886080838081806180838081F3
S113076080688083E2ECF0E0808186608083089575
S1130770CF93DF93FC012081222369F0DC011196E1
S1130780E0ECF0E0C6ECD0E0908195FFFDCF28834B
S11307902D912111F9CFDF91CF9108950F931F93DC
S11307A0CF93DF938B01FC013196AC014C5F5F4F1B
S11307B0C0E0D0E09E01220F331FCC0FDD1FCC0F11
S11307C0DD1FCC0FDD1FC20FD31F219130E020535A
S11307D03109C20FD31FE417F50761F7FC018181CA
S11307E0803721F489E391E00E94B803F801D183B2
S11307F0C083DF91CF911F910F9108955058BB276B
S1130800AA270E9416040C9460050E94520538F031
S11308100E94590520F039F49F3F19F426F40C94F2
S11308204F050EF4E095E7FB0C944905E92F0E946F
S1130830710558F3BA17620773078407950720F008
S113084079F4A6F50C9493050EF4E0950B2EBA2FCB
S1130850A02D0B01B90190010C01CA01A0011124C2
S1130860FF27591B99F0593F50F4503E68F11A166E
S1130870F040A22F232F342F4427585FF3CF4695FF
S113088037952795A795F0405395C9F77EF41F1621
S1130890BA0B620B730B840BBAF09150A1F0FF0FEB
S11308A0BB1F661F771F881FC2F70EC0BA0F621FD7
S11308B0731F841F48F4879577956795B795F795C7
S11308C09E3F08F0B0CF9395880F08F09927EE0F5C
S11308D09795879508950E947F040C9460050E9463
S11308E0590558F00E94520540F029F45F3F29F061
S11308F00C94490551110C9494050C944F050E94D5
S1130900710568F39923B1F3552391F3951B550BA6
S1130910BB27AA2762177307840738F09F5F5F4FCE
S1130920220F331F441FAA1FA9F335D00E2E3AF00D
S1130930E0E832D091505040E695001CCAF72BD025
S1130940FE2F29D0660F771F881FBB1F2617370776
S11309504807AB07B0E809F0BB0B802DBF01FF27A8
S113096093585F4F3AF09E3F510578F00C94490537
S11309700C9494055F3FE4F3983ED4F38695779501
S11309806795B795F7959F5FC9F7880F911D969561
S1130990879597F90895E1E0660F771F881FBB1FBD
S11309A0621773078407BA0720F0621B730B840B6A
S11309B0BA0BEE1F88F7E09508950E94790588F038
S11309C09F5798F0B92F9927B751B0F0E1F0660F0F
S11309D0771F881F991F1AF0BA95C9F714C0B13050
S11309E091F00E949305B1E008950C949305672F4C
S11309F0782F8827B85F39F0B93FCCF3869577957F
S1130A006795B395D9F73EF4909580957095619567
S1130A107F4F8F4F9F4F0895E89409C097FB3EF492
S1130A2090958095709561957F4F8F4F9F4F992337
S1130A30A9F0F92F96E9BB279395F69587957795B5
S1130A406795B795F111F8CFFAF4BB0F11F460FF75
S1130A501BC06F5F7F4F8F4F9F4F16C0882311F0CD
S1130A6096E911C0772321F09EE8872F762F05C0E1
S1130A70662371F096E8862F70E060E02AF09A957C
S1130A80660F771F881FDAF7880F9695879597F971
S1130A90089597F99F6780E870E060E008959FEFFC
S1130AA080EC089500240A94161617061806090601
S1130AB0089500240A9412161306140605060895D0
S1130AC0092E0394000C11F4882352F0BB0F40F458
S1130AD0BF2B11F460FF04C06F5F7F4F8F4F9F4F98
S1130AE0089557FD9058440F551F59F05F3F71F01A
S1130AF04795880F97FB991F61F09F3F79F0879581
S1130B000895121613061406551FF2CF4695F1DF09
S1130B1008C0161617061806991FF1CF8695710599
S1130B20610508940895E894BB2766277727CB01CD
S1130B3097F908950E94AD050C9460050E94520532
S1130B4038F00E94590520F0952311F00C944905C2
S1130B500C944F0511240C9494050E94710570F3B4
S1130B60959FC1F3950F50E0551F629FF001729F4E
S1130B70BB27F00DB11D639FAA27F00DB11DAA1F5D
S1130B80649F6627B00DA11D661F829F2227B00DAA
S1130B90A11D621F739FB00DA11D621F839FA00D35
S1130BA0611D221F749F3327A00D611D231F849F85
S1130BB0600D211D822F762F6A2F11249F575040DC
S1130BC09AF0F1F088234AF0EE0FFF1FBB1F661F57
S1130BD0771F881F91505040A9F79E3F510580F020
S1130BE00C9449050C9494055F3FE4F3983ED4F3C8
S1130BF0869577956795B795F795E7959F5FC1F7C4
S1130C00FE2B880F911D9695879597F90895A29FBD
S1130C10B001B39FC001A39F700D811D1124911DCC
S1130C20B29F700D811D1124911D0895F894FFCF7A
S1130C300A0D46726F6D204D6963726F636F6E7437
S1130C40726F6C6C65723A20004572726F7221206B
S1130C5054686520636F6D6D616E642069732069EB
S1130C606E76616C69640A0D000A0D6974732068FC
S10B0C70657265210A0D000004
S9030000FC
