S01F00004C696E6561725F4D6F746F725F436F6E74726F6C6C65722E73726563B7
S11300000C9434000C9451000C9451000C94510045
S11300100C9451000C9451000C9451000C94510018
S11300200C9451000C9451000C9451000C94F30165
S11300300C945A020C9451000C94D7010C9418029D
S11300400C9451000C9451000C9453000C945100E6
S11300500C9451000C9451000C9451000C945100D8
S11300600C9451000C94510011241FBECFEFD8E022
S1130070DEBFCDBF11E0A0E0B1E0E4ECF9E002C0E6
S113008005900D92A834B107D9F722E0A8E4B1E0B5
S113009001C01D92A735B207E1F70E94B2000C948B
S11300A0E0040C9400001F920F920FB60F921124DB
S11300B08F939F93EF93FF938091C60090914A0191
S11300C0911147C08B3749F490914B019F5F9093F6
S11300D04B0191E09093480112C08D3781F49091C7
S11300E04801913061F490914B01915090934B01F0
S11300F090914B01911103C091E090934A0190912A
S113010048019130A9F4E0914C01F0E0E85AFE4F27
S1130110808380914C018F5F80934C0180914A01D0
S1130120813031F4E0914C01F0E0E85AFE4F108246
S113013080914C018E3F21F080914B01843048F036
S113014081E0809349011092480110924A01109273
S11301504C01FF91EF919F918F910F900FBE0F90E3
S11301601F90189583E390E00E947C027894E091BC
S11301704F01F091500180E090E0A8E4B1E4808365
S11301809183A283B383E0914D01F0914E0186E9FE
S113019080830E942901E0914D01F0914E0140813C
S11301A0E0914F01F09150016081718182819381CE
S11301B00E944301C1ECD0E080914A01813081F575
S11301C088818F7E888380E091E00E94910288E597
S11301D091E00E94910260914D0170914E0188E579
S11301E091E00E94A702E0914D01F0914E014081FF
S11301F0E0914F01F091500160817181828193817E
S11302000E94430184E491E00E94910210924A0109
S11302101092480110924C01888180618883CCCF70
S113022080914901813041F688818F7E888380E006
S113023091E00E94910289E191E00E949102109262
S113024049011092480110924B0188818061888392
S1130250B3CF85B5816085BD80E487BD80E188BD6D
S1130260E1E8F0E0808182608083209A8AB1806E28
S11302708AB9289A5E9A5D985F981092530181E03A
S11302808093570108954F925F926F927F928F925D
S11302909F92AF92BF92CF92DF92EF92FF926B0147
S11302A07C01642F70E080E090E00E94E50320E090
S11302B030E04FE753E40E9444032B013C01A701C3
S11302C09601C701B6010E94D8029B01AC0160E00F
S11302D070E08AE794E40E9444034B015C019B01B3
S11302E0AC01C301B2010E9473046B017C01A30140
S11302F0920160E070E080E89FE30E94D702A501CC
S113030094010E947304A70196010E94D80220E080
S113031030E0A9010E94D80220E030E04AE754E42A
S11303200E9473040E94B6037093560160935501B2
S113033020E030E04AE754E4C701B6010E947304A8
S11303400E94B603709352016093510110925401BC
S113035081E08093530180915701882391F080912B
S11303605501909156019093890080938800809163
S113037051019091520190938B0080938A001092C6
S11303805701EFE6F0E0808186608083109285005B
S113039010928400FF90EF90DF90CF90BF90AF90C9
S11303A09F908F907F906F905F904F9008951F92D1
S11303B00F920FB60F9211248F93EF93FF93EEE6F3
S11303C0F0E080818D7F808380915401811102C08F
S11303D05F9A01C05E9AFF91EF918F910F900FBECB
S11303E00F901F9018951F920F920FB60F92112421
S11303F08F93EF93FF9380915401811102C05E9813
S113040001C05F98EFE6F0E080818D7F808380817A
S11304108B7F8083EEE6F0E080818460808316BC6D
S1130420FF91EF918F910F900FBE0F901F90189531
S11304301F920F920FB60F9211248F939F93EF93F5
S1130440FF93EEE6F0E080818B7F808380915401FE
S1130450811105C05D9A81E08093540103C0289AFC
S11304601092540180915301882379F080915501B1
S11304709091560187BD80915101909152019093C2
S11304808B0080938A0010925301EFE6F0E08081A4
S113049084608083808182608083109285001092C2
S11304A08400FF91EF919F918F910F900FBE0F9059
S11304B01F9018951F920F920FB60F9211248F93CD
S11304C0EF93FF93EFE6F0E080818B7F8083809150
S11304D05401811102C0289801C05D98EEE6F0E055
S11304E080818260808316BCFF91EF918F910F9081
S11304F00FBE0F901F9018951092C0008093C400F7
S1130500E1ECF0E080818860808380818061808379
S1130510808180688083E2ECF0E080818660808363
S11305200895CF93DF93FC012081222369F0DC013D
S11305301196E0ECF0E0C6ECD0E0908195FFFDCFA1
S113054028832D912111F9CFDF91CF9108950F9335
S11305501F93CF93DF938B01FC013196AC014C5F69
S11305605F4FC0E0D0E09E01220F331FCC0FDD1F90
S1130570CC0FDD1FCC0FDD1FC20FD31F219130E044
S113058020533109C20FD31FE417F50761F7FC01AB
S11305908181803721F489E391E00E949102F8017E
S11305A0D183C083DF91CF911F910F91089550584B
S11305B0BB27AA270E94EF020C9439040E942B0443
S11305C038F00E94320420F039F49F3F19F426F4E5
S11305D00C9428040EF4E095E7FB0C942204E92F14
S11305E00E944A0458F3BA176207730784079507F1
S11305F020F079F4A6F50C946C040EF4E0950B2E1F
S1130600BA2FA02D0B01B90190010C01CA01A00160
S11306101124FF27591B99F0593F50F4503E68F1BB
S11306201A16F040A22F232F342F4427585FF3CFFC
S1130630469537952795A795F0405395C9F77EF4CD
S11306401F16BA0B620B730B840BBAF09150A1F016
S1130650FF0FBB1F661F771F881FC2F70EC0BA0F9C
S1130660621F731F841F48F4879577956795B79524
S1130670F7959E3F08F0B0CF9395880F08F099271F
S1130680EE0F9795879508950E9458030C943904AA
S11306900E94320458F00E942B0440F029F45F3F7A
S11306A029F00C94220451110C946D040C94280428
S11306B00E944A0468F39923B1F3552391F3951BDF
S11306C0550BBB27AA2762177307840738F09F5F6F
S11306D05F4F220F331F441FAA1FA9F335D00E2EDC
S11306E03AF0E0E832D091505040E695001CCAF749
S11306F02BD0FE2F29D0660F771F881FBB1F26170C
S113070037074807AB07B0E809F0BB0B802DBF01E2
S1130710FF2793585F4F3AF09E3F510578F00C94B1
S113072022040C946D045F3FE4F3983ED4F3869561
S113073077956795B795F7959F5FC9F7880F911DD2
S11307409695879597F90895E1E0660F771F881FBE
S1130750BB1F621773078407BA0720F0621B730B71
S1130760840BBA0BEE1F88F7E09508950E9452049B
S113077088F09F5798F0B92F9927B751B0F0E1F05E
S1130780660F771F881F991F1AF0BA95C9F714C00E
S1130790B13091F00E946C04B1E008950C946C04A3
S11307A0672F782F8827B85F39F0B93FCCF3869547
S11307B077956795B395D9F73EF4909580957095A4
S11307C061957F4F8F4F9F4F0895E89409C097FB21
S11307D03EF490958095709561957F4F8F4F9F4F14
S11307E09923A9F0F92F96E9BB279395F695879558
S11307F077956795B795F111F8CFFAF4BB0F11F41B
S113080060FF1BC06F5F7F4F8F4F9F4F16C08823C1
S113081011F096E911C0772321F09EE8872F762FF7
S113082005C0662371F096E8862F70E060E02AF038
S11308309A95660F771F881FDAF7880F9695879524
S113084097F9089597F99F6780E870E060E008954C
S11308509FEF80EC089500240A94161617061806D4
S11308600906089500240A941216130614060506B0
S11308700895092E0394000C11F4882352F0BB0F41
S113088040F4BF2B11F460FF04C06F5F7F4F8F4FA4
S11308909F4F089557FD9058440F551F59F05F3FDF
S11308A071F04795880F97FB991F61F09F3F79F08E
S11308B087950895121613061406551FF2CF469510
S11308C0F1DF08C0161617061806991FF1CF869592
S11308D07105610508940895E894BB276627772776
S11308E0CB0197F908950E9486040C9439040E9460
S11308F02B0438F00E94320420F0952311F00C945C
S113090022040C94280411240C946D040E944A04BB
S113091070F3959FC1F3950F50E0551F629FF0014E
S1130920729FBB27F00DB11D639FAA27F00DB11D67
S1130930AA1F649F6627B00DA11D661F829F2227F0
S1130940B00DA11D621F739FB00DA11D621F839F77
S1130950A00D611D221F749F3327A00D611D231F4D
S1130960849F600D211D822F762F6A2F11249F579B
S113097050409AF0F1F088234AF0EE0FFF1FBB1F9E
S1130980661F771F881F91505040A9F79E3F51055D
S113099080F00C9422040C946D045F3FE4F3983EC1
S11309A0D4F3869577956795B795F795E7959F5F07
S11309B0C1F7FE2B880F911D9695879597F9089599
S10709C0F894FFCFD5
S11309C40A0D46726F6D204D6963726F636F6E74A6
S11309D4726F6C6C65723A20004572726F722120DA
S11309E454686520636F6D6D616E6420697320695A
S11309F46E76616C69640A0D000A0D69747320686B
S10B0A04657265210A0D000072
S9030000FC
