S01F00004C696E6561725F4D6F746F725F436F6E74726F6C6C65722E73726563B7
S11300000C9434000C9446000C9446000C94460066
S11300100C9446000C9446000C9446000C94460044
S11300200C9446000C9446000C9446000C949501E4
S11300300C9450010C9446000C942D010C94FF0078
S11300400C9446000C9446000C9446000C94460014
S11300500C9446000C9446000C9446000C94460004
S11300600C9446000C94460011241FBECFEFD8E038
S1130070DEBFCDBF21E0A0E0B1E001C01D92A730FA
S1130080B207E1F70E94B3010C9418040C94000029
S113009085B5816085BD80ED87BD88E188BDE1E8D7
S11300A0F0E080818260808381E084B980EE8AB947
S11300B0289A5D985F985E9A1092000108954F9275
S11300C05F926F927F928F929F92AF92BF92CF92E4
S11300D0DF92EF92FF922B013C0169017A0160E00B
S11300E070E080E89FE30E94C2014B015C01A7011C
S11300F09601C701B6010E94C301A50194010E94A3
S11301002F022AE939E949E150E40E94C301A3011D
S113011092010E945E039B01AC0160E070E08AE7FB
S113012094E40E942F0220E030E04AE754E40E9465
S11301305E032B013C010E94CB0320E030E048EE3B
S113014054E40E94C3010E94A102709302016093CF
S1130150010123E333E343EB5FE3C301B2010E94F4
S11301605E030E94CB0320E030E048EE54E40E949A
S1130170C3010E94A102709306016093050160917E
S113018001017091020180E090E00E94D002A70179
S113019096010E945E03A50194010E942F020E9411
S11301A0A102709304016093030180910301909173
S11301B0040190938B0080938A0020910301309175
S11301C004018091010190910201820F931F909389
S11301D0890080938800FF90EF90DF90CF90BF90CC
S11301E0AF909F908F907F906F905F904F90089505
S11301F07894EFE6F0E080818660808308951F9212
S11302000F920FB60F9211248F939F93EF93FF9346
S1130210EEE6F0E080818B7F80831092850010925F
S1130220840080910001882329F095B181E0892719
S113023085B904C09BB180E289278BB990910001F4
S113024081E0892780930001FF91EF919F918F9125
S11302500F900FBE0F901F9018951F920F920FB61C
S11302600F9211248F939F93EF93FF93EEE6F0E0A8
S113027080818D7F808380910001882329F09BB148
S113028080E489278BB903C08BB180588BB9FF9167
S1130290EF919F918F910F900FBE0F901F90189523
S11302A01F920F920FB60F9211242F933F938F93A7
S11302B09F93EF93FF9380910001882399F09BB162
S11302C080E289278BB92091030130910401809148
S11302D0050190910601820F931F909389008093EA
S11302E0880012C095B181E0892785B92091030166
S11302F0309104018091010190910201820F931FBA
S1130300909389008093880016BCEEE6F0E080812B
S113031082608083FF91EF919F918F913F912F9104
S11303200F900FBE0F901F9018951F920F920FB64B
S11303300F9211248F939F9380910001882321F0C1
S11303408BB180588BB904C09BB180E489278BB9E9
S113035016BC84E080936E009F918F910F900FBE26
S11303600F901F90189520E030E040E05FE360E0DC
S113037070E080E591E40E945F000E9448000E94C2
S1130380F800FFCF5058BB27AA270E94DA010C942B
S113039024030E94160338F00E941D0320F039F450
S11303A09F3F19F426F40C9413030EF4E095E7FB35
S11303B00C940D03E92F0E94350358F3BA17620712
S11303C073078407950720F079F4A6F50C94570376
S11303D00EF4E0950B2EBA2FA02D0B01B90190015C
S11303E00C01CA01A0011124FF27591B99F0593FA0
S11303F050F4503E68F11A16F040A22F232F342FE8
S11304004427585FF3CF469537952795A795F04035
S11304105395C9F77EF41F16BA0B620B730B840B4A
S1130420BAF09150A1F0FF0FBB1F661F771F881F02
S1130430C2F70EC0BA0F621F731F841F48F487955A
S113044077956795B795F7959E3F08F0B0CF93954C
S1130450880F08F09927EE0F9795879508950E94C5
S113046043020C9424030E941D0358F00E941603B7
S113047040F029F45F3F29F00C940D0351110C94C2
S113048058030C9413030E94350368F39923B1F3C2
S1130490552391F3951B550BBB27AA2762177307A6
S11304A0840738F09F5F5F4F220F331F441FAA1F3A
S11304B0A9F335D00E2E3AF0E0E832D091505040F6
S11304C0E695001CCAF72BD0FE2F29D0660F771FA4
S11304D0881FBB1F261737074807AB07B0E809F08A
S11304E0BB0B802DBF01FF2793585F4F3AF09E3F0F
S11304F0510578F00C940D030C9458035F3FE4F31A
S1130500983ED4F3869577956795B795F7959F5F51
S1130510C9F7880F911D9695879597F90895E1E09D
S1130520660F771F881FBB1F621773078407BA07FC
S113053020F0621B730B840BBA0BEE1F88F7E09557
S113054008950E943D0388F09F5798F0B92F99278A
S1130550B751B0F0E1F0660F771F881F991F1AF0AA
S1130560BA95C9F714C0B13091F00E945703B1E0B5
S113057008950C945703672F782F8827B85F39F0B4
S1130580B93FCCF3869577956795B395D9F73EF443
S113059090958095709561957F4F8F4F9F4F0895EB
S11305A0E89409C097FB3EF4909580957095619509
S11305B07F4F8F4F9F4F9923A9F0F92F96E9BB27BF
S11305C09395F695879577956795B795F111F8CF3B
S11305D0FAF4BB0F11F460FF1BC06F5F7F4F8F4FA6
S11305E09F4F16C0882311F096E911C0772321F09C
S11305F09EE8872F762F05C0662371F096E8862F34
S113060070E060E02AF09A95660F771F881FDAF78A
S1130610880F9695879597F9089597F99F6780E8CD
S113062070E060E008959FEF80EC089500240A9440
S11306301616170618060906089500240A941216B9
S11306401306140605060895092E0394000C11F4EC
S1130650882352F0BB0F40F4BF2B11F460FF04C099
S11306606F5F7F4F8F4F9F4F089557FD9058440FF2
S1130670551F59F05F3F71F04795880F97FB991FFD
S113068061F09F3F79F087950895121613061406BA
S1130690551FF2CF4695F1DF08C016161706180647
S11306A0991FF1CF86957105610508940895E89422
S11306B0BB2766277727CB0197F908950E9471031A
S11306C00C9424030E94160338F00E941D0320F0AA
S11306D0952311F00C940D030C94130311240C9422
S11306E058030E94350370F3959FC1F3950F50E0B2
S11306F0551F629FF001729FBB27F00DB11D639FD0
S1130700AA27F00DB11DAA1F649F6627B00DA11D75
S1130710661F829F2227B00DA11D621F739FB00D1B
S1130720A11D621F839FA00D611D221F749F33278B
S1130730A00D611D231F849F600D211D822F762F24
S11307406A2F11249F5750409AF0F1F088234AF001
S1130750EE0FFF1FBB1F661F771F881F915050406D
S1130760A9F79E3F510580F00C940D030C94580397
S11307705F3FE4F3983ED4F3869577956795B795F4
S1130780F795E7959F5FC1F7FE2B880F911D96950E
S1130790879597F908950E943D03E8F09E37E8F0A5
S11307A09639B8F49E3848F4672F782F8827985FD5
S11307B0F9CF86957795679593959539D0F3B62FAC
S11307C0B1706B0F711D811D20F487957795679526
S11307D093950C94EF030C940A040C945803882307
S11307E071F4772321F09850872B762F07C0662366
S11307F011F499270DC09051862B70E060E02AF027
S11308009A95660F771F881FDAF7880F9695879554
S113081097F908959F3F31F0915020F4879577958B
S11308206795B795880F911D9695879597F90895C3
S1070830F894FFCF66
S9030000FC
