S01F00004C696E6561725F4D6F746F725F436F6E74726F6C6C65722E73726563B7
S11300000C9434000C9449000C9449000C9449005D
S11300100C9449000C9449000C9449000C94490038
S11300200C9449000C9449000C9449000C94490028
S11300300C9449000C9449000C9449000C94490018
S11300400C9449000C9449000C9449000C94490008
S11300500C9449000C9449000C9449000C944900F8
S11300600C9449000C94490011241FBECFEFD8E032
S1130070DEBFCDBF11E0A0E0B1E0E8E3F1E002C0F3
S113008005900D92AE31B107D9F70E944B000C9444
S11300909A000C940000CF93DF93CDB7DEB76E9730
S11300A00FB6F894DEBF0FBECDBF83E390E00E948D
S11300B06E0087E1E0E0F1E0DE01119601900D921F
S11300C08A95E1F7FE01789687E0DF011D928A9513
S11300D0E9F7CE0101960E947E00FBCF8093C40015
S11300E0E1ECF0E08081886080838081806180839E
S11300F0E2ECF0E08081866080830895CF93DF9303
S1130100FC012081222399F0DC011196E0ECF0E05F
S1130110C6ECD0E0908195FFFDCF28838FE19EE46B
S11301200197F1F700C000002D912111F3CFDF9169
S10B0130CF910895F894FFCF6C
S113013848656C6C6F207765206172652054656131
S11101486D2031210A0D0000000000000000AF
S9030000FC
