S01F00004C696E6561725F4D6F746F725F436F6E74726F6C6C65722E73726563B7
S11300000C9434000C9451000C9451000C94510045
S11300100C9451000C9451000C9451000C94510018
S11300200C9451000C9451000C9451000C94D10187
S11300300C9413020C9451000C94B5010C94EE0131
S11300400C9451000C9451000C9453000C945100E6
S11300500C9451000C9451000C9451000C945100D8
S11300600C9451000C94510011241FBECFEFD8E022
S1130070DEBFCDBF11E0A0E0B1E0E6E2F9E002C0EE
S113008005900D92A035B107D9F722E0A0E5B1E0C3
S113009001C01D92A935B207E1F70E94B2000C9489
S11300A091040C9400001F920F920FB60F9211242A
S11300B08F939F93EF93FF938091C6009091520189
S11300C0911147C08B3749F4909153019F5F9093EE
S11300D0530191E09093500112C08D3781F49091B7
S11300E05001913061F490915301915090935301D8
S11300F090915301911103C091E09093520190911A
S113010050019130A9F4E0915401F0E0E65AFE4F19
S11301108083809154018F5F8093540180915201B8
S1130120813031F4E0915401F0E0E65AFE4F108240
S1130130809154018E3F21F080915301843048F026
S113014081E080935101109250011092520110925B
S11301505401FF91EF919F918F910F900FBE0F90DB
S11301601F90189583E390E00E9430027894E09108
S11301705701F091580180E090E0A0E4B1E480835D
S11301809183A283B383E0915501F091560184E6F3
S113019090E0918380830E942101609155017091C8
S11301A0560180915701909158010E943801C1EC89
S11301B0D0E080915201813059F588818F7E888307
S11301C080E091E00E9445028AE591E00E944502A8
S11301D060915501709156018AE591E00E945B029D
S11301E06091550170915601809157019091580189
S11301F00E94380186E391E00E9445021092520168
S11302001092500110925401888180618883D1CF6B
S113021080915101813069F688818F7E888380E0E6
S113022091E00E94450289E191E00E94450210920A
S1130230510110925001109253018881806188838A
S1130240B8CF85B5816085BD80ED87BD88E188BD67
S1130250E1E8F0E0808182608083209A8AB1806E38
S11302608AB9289A5E9A5D985F9810925901089508
S11302704F925F926F927F928F929F92AF92BF92B2
S1130280CF92DF92EF92FF92CF93DF93EC01FB01C9
S113029060817181072E000C880B990B0E949803D2
S11302A020E030E04FE753E40E94F5022B013C01CB
S11302B0688179818A819B819B01AC010E948902BA
S11302C09B01AC0160E070E08AE794E40E94F502CF
S11302D04B015C019B01AC01C301B2010E942404E7
S11302E06B017C01A301920160E070E080E89FE370
S11302F00E948802A50194010E942404A70196018A
S11303000E94890220E030E0A9010E94890220E0D5
S113031030E04AE754E40E9424040E946703709387
S113032089006093880020E030E04AE754E4C70184
S1130330B6010E9424040E94670370938B006093AB
S11303408A00EFE6F0E0808186608083DF91CF91C0
S1130350FF90EF90DF90CF90BF90AF909F908F90E1
S11303607F906F905F904F9008951F920F920FB6F9
S11303700F9211248F93EF93FF93EEE6F0E08081C8
S11303808D7F808380915901811102C05F9A01C0E1
S11303905E9AFF91EF918F910F900FBE0F901F9077
S11303A018951F920F920FB60F9211248F93EF930B
S11303B0FF9380915901811102C05E9801C05F983A
S11303C016BCEEE6F0E0808184608083FF91EF91BB
S11303D08F910F900FBE0F901F9018951F920F9240
S11303E00FB60F9211248F93EF93FF93EEE6F0E094
S11303F080818B7F808380915901811105C05D9A32
S113040081E08093590103C0289A109259011092F7
S1130410850010928400FF91EF918F910F900FBE91
S11304200F901F9018951F920F920FB60F921124E0
S11304308F93EF93FF9380915901811102C0289803
S113044001C05D9816BCEEE6F0E080818260808396
S1130450FF91EF918F910F900FBE0F901F90189501
S11304601092C0008093C400E1ECF0E080818860C9
S11304708083808180618083808180688083E2ECD6
S1130480F0E08081866080830895CF93DF93FC0140
S11304902081222369F0DC011196E0ECF0E0C6EC47
S11304A0D0E0908195FFFDCF28832D912111F9CFC4
S11304B0DF91CF9108950F931F93CF93DF938B0117
S11304C0FC0131960496C0E0D0E09E01220F331F58
S11304D0CC0FDD1FCC0FDD1FCC0FDD1FC20FD31FD0
S11304E0219130E020533109C20FD31FE817F907D7
S11304F061F7C436D10521F489E391E00E944502F5
S1130500F801D183C083DF91CF911F910F9108959A
S11305105058BB27AA270E94A0020C94EA030E9409
S1130520DC0338F00E94E30320F039F49F3F19F410
S113053026F40C94D9030EF4E095E7FB0C94D30352
S1130540E92F0E94FB0358F3BA1762077307840765
S1130550950720F079F4A6F50C941D040EF4E095AB
S11305600B2EBA2FA02D0B01B90190010C01CA0169
S1130570A0011124FF27591B99F0593F50F4503E14
S113058068F11A16F040A22F232F342F4427585F06
S1130590F3CF469537952795A795F0405395C9F71E
S11305A07EF41F16BA0B620B730B840BBAF09150D6
S11305B0A1F0FF0FBB1F661F771F881FC2F70EC075
S11305C0BA0F621F731F841F48F487957795679548
S11305D0B795F7959E3F08F0B0CF9395880F08F034
S11305E09927EE0F9795879508950E9409030C9417
S11305F0EA030E94E30358F00E94DC0340F029F46C
S11306005F3F29F00C94D30351110C941E040C94F5
S1130610D9030E94FB0368F39923B1F3552391F3A3
S1130620951B550BBB27AA2762177307840738F05D
S11306309F5F5F4F220F331F441FAA1FA9F335D0BA
S11306400E2E3AF0E0E832D091505040E695001C6E
S1130650CAF72BD0FE2F29D0660F771F881FBB1F28
S1130660261737074807AB07B0E809F0BB0B802D06
S1130670BF01FF2793585F4F3AF09E3F510578F032
S11306800C94D3030C941E045F3FE4F3983ED4F31C
S1130690869577956795B795F7959F5FC9F7880F06
S11306A0911D9695879597F90895E1E0660F771F58
S11306B0881FBB1F621773078407BA0720F0621BE9
S11306C0730B840BBA0BEE1F88F7E09508950E9414
S11306D0030488F09F5798F0B92F9927B751B0F0C9
S11306E0E1F0660F771F881F991F1AF0BA95C9F7B2
S11306F014C0B13091F00E941D04B1E008950C942F
S11307001D04672F782F8827B85F39F0B93FCCF3E1
S1130710869577956795B395D9F73EF4909580952E
S1130720709561957F4F8F4F9F4F0895E89409C04E
S113073097FB3EF490958095709561957F4F8F4F10
S11307409F4F9923A9F0F92F96E9BB279395F69526
S1130750879577956795B795F111F8CFFAF4BB0FA4
S113076011F460FF1BC06F5F7F4F8F4F9F4F16C008
S1130770882311F096E911C0772321F09EE8872F92
S1130780762F05C0662371F096E8862F70E060E04E
S11307902AF09A95660F771F881FDAF7880F9695C7
S11307A0879597F9089597F99F6780E870E060E06E
S11307B008959FEF80EC089500240A9416161706F6
S11307C018060906089500240A941216130614063E
S11307D005060895092E0394000C11F4882352F0A1
S11307E0BB0F40F4BF2B11F460FF04C06F5F7F4F59
S11307F08F4F9F4F089557FD9058440F551F59F040
S11308005F3F71F04795880F97FB991F61F09F3FF9
S113081079F087950895121613061406551FF2CF22
S11308204695F1DF08C0161617061806991FF1CF72
S113083086957105610508940895E894BB27662799
S11308407727CB0197F908950E9437040C94EA03A3
S11308500E94DC0338F00E94E30320F0952311F09A
S11308600C94D3030C94D90311240C941E040E94F9
S1130870FB0370F3959FC1F3950F50E0551F629FE2
S1130880F001729FBB27F00DB11D639FAA27F00DE5
S1130890B11DAA1F649F6627B00DA11D661F829F0C
S11308A02227B00DA11D621F739FB00DA11D621FF1
S11308B0839FA00D611D221F749F3327A00D611D0E
S11308C0231F849F600D211D822F762F6A2F1124F0
S11308D09F5750409AF0F1F088234AF0EE0FFF1F23
S11308E0BB1F661F771F881F91505040A9F79E3F7A
S11308F0510580F00C94D3030C941E045F3FE4F381
S1130900983ED4F3869577956795B795F795E795CF
S11309109F5FC1F7FE2B880F911D9695879597F9D8
S10909200895F894FFCFD6
S11309260A0D46726F6D204D6963726F636F6E7444
S1130936726F6C6C65723A20004572726F72212078
S113094654686520636F6D6D616E642069732069F8
S11309566E76616C69640A0D00636F6E76657273F8
S1130966696F6E20697320636F7272656374000029
S9030000FC
