S01F00004C696E6561725F4D6F746F725F436F6E74726F6C6C65722E73726563B7
S11300000C9434000C9451000C9451000C94510045
S11300100C9451000C9451000C9451000C94510018
S11300200C9451000C9451000C9451000C94510008
S11300300C9451000C9451000C9451000C945100F8
S11300400C9451000C9451000C947C000C945100BD
S11300500C9451000C9451000C9451000C945100D8
S11300600C9451000C94510011241FBECFEFD8E022
S1130070DEBFCDBF11E0A0E0B1E0E6EAF1E002C0EE
S113008005900D92AE31B107D9F721E0AEE1B1E0B0
S113009001C01D92AE33B207E1F70E9453000C94E5
S11300A0D1000C940000CF93DF93CDB7DEB76E97E9
S11300B00FB6F894DEBF0FBECDBF83E390E00E947D
S11300C0A50078940F2EF7E0FF2EF02D8E01085E28
S11300D01F4F87E1E0E0F1E0DE01119601900D92FF
S11300E08A95E1F7F8018F2D11928A95E9F7CE01EF
S11300F001960E94B500EDCF1F920F920FB60F929A
S113010011248F939F93EF93FF93E0ECF0E08081B1
S11301108823ECF7E0911E01F0911F018091C60045
S1130120E05EFE4F808380911E0190911F01019635
S113013090931F0180931E01FF91EF919F918F91E6
S11301400F900FBE0F901F9018958093C400E1ECA0
S1130150F0E0808188608083808180618083E2EC2C
S1130160F0E08081866080830895CF93DF93FC0163
S11301702081222399F0DC011196E0ECF0E0C6EC3A
S1130180D0E0908195FFFDCF28838FE19EE4019715
S1130190F1F700C000002D912111F3CFDF91CF9131
S10901A00895F894FFCF5E
S11301A648656C6C6F2077652061726520546561C3
S11101B66D2031210A0D000000000000000041
S9030000FC
