S01F00004C696E6561725F4D6F746F725F436F6E74726F6C6C65722E73726563B7
S11300000C9434000C9446000C9446000C94460066
S11300100C9446000C9446000C9446000C94460044
S11300200C9446000C9446000C9446000C94C000BA
S11300300C94A5000C9446000C9446000C9481008A
S11300400C9446000C9446000C9446000C94460014
S11300500C9446000C9446000C9446000C94460004
S11300600C9446000C94460011241FBECFEFD8E038
S1130070DEBFCDBF21E0A0E0B1E001C01D92AB30F6
S1130080B207E1F70E94DC000C94EB000C94000032
S113009085B5816085BD8FEF88BDE1E8F0E08081A2
S11300A08260808381E084B980EE8AB928985D9863
S11300B05F9A5E9810920401089580E395E7909307
S11300C00801809307018091070190910801805EE7
S11300D0914B9093890080938800809107019091BF
S11300E0080190938B0080938A0008957894EFE63A
S11300F0F0E08081866080839BB180E289278BB9A0
S113010008951F920F920FB60F9211248F939F930D
S1130110EF93FF93EEE6F0E080818B7F80839BB1C9
S113012080E298279BB9EFE9FFE03197F1F700C02F
S113013000009BB189278BB9FF91EF919F918F911B
S11301400F900FBE0F901F9018951F920F920FB62D
S11301500F9211248F939F93EF93FF939BB180E2AF
S113016089278BB9EEE6F0E0808184608083FF917B
S1130170EF919F918F910F900FBE0F901F90189544
S11301801F920F920FB60F9211248F939F939BB1DE
S113019080E289278BB91092850010928400909197
S11301A0040181E08927809304019F918F910F902E
S11301B00FBE0F901F90189520E030E048E452E401
S11301C060E070E080E491E40E945D000E944800D9
S10D01D00E947600FFCFF894FFCFE1
S9030000FC
