S01F00004C696E6561725F4D6F746F725F436F6E74726F6C6C65722E73726563B7
S11300000C9434000C9451000C9451000C94510045
S11300100C9451000C9451000C9451000C94510018
S11300200C9451000C9451000C9451000C94510008
S11300300C9451000C9451000C9451000C945100F8
S11300400C9451000C9451000C9453000C945100E6
S11300500C9451000C9451000C9451000C945100D8
S11300600C9451000C94510011241FBECFEFD8E022
S1130070DEBFCDBF11E0A0E0B1E0E4E7F2E002C0F2
S113008005900D92A833B107D9F721E0A8E3B1E0B8
S113009001C01D92AB35B207E1F70E94B2000C9487
S11300A038010C9400001F920F920FB60F92112486
S11300B08F939F93EF93FF938091C60090913A01A1
S11300C0911147C08B3749F490913B019F5F909306
S11300D03B0191E09093380112C08D3781F49091E7
S11300E03801913061F490913B01915090933B0120
S11300F090913B01911103C091E090933A0190914A
S113010038019130A9F4E0913C01F0E0E35CFE4F4A
S1130110808380913C018F5F80933C0180913A0100
S1130120813031F4E0913C01F0E0E35CFE4F108259
S113013080913C018D3121F080913B01843048F065
S113014081E0809339011092380110923A011092A3
S11301503C01FF91EF919F918F910F900FBE0F90F3
S11301601F90189583E390E00E940D017894C1ECF0
S1130170D0E080913A01813031F588818F7E888387
S11301802FEF80E792E0215080409040E1F700C0DB
S1130190000080E091E00E94220183E091E00E944F
S11301A022018DE391E00E94220180E091E00E940F
S11301B0220110923A011092380110923C01888178
S11301C080618883D6CF80913901813091F688810E
S11301D08F7E88832FEF80E792E02150804090400B
S11301E0E1F700C0000080E091E00E94220183E07A
S11301F091E00E9422018AE191E00E94220180E0C4
S113020091E00E942201109239011092380110925B
S11302103B01888180618883ACCF1092C0008093B9
S1130220C400E1ECF0E0808188608083808180619B
S11302308083808180688083E2ECF0E08081866046
S113024080830895CF93DF93FC012081222369F0FA
S1130250DC011196E0ECF0E0C6ECD0E0908195FF73
S1130260FDCF28832D912111F9CFDF91CF910895EE
S1070270F894FFCF2C
S11302740A0D0046726F6D204D6963726F636F6E71
S113028474726F6C6C65723A20004572726F7221DD
S11302942054686520636F6D6D616E6420697320FA
S10B02A4696E76616C69640067
S9030000FC
