S01F00004C696E6561725F4D6F746F725F436F6E74726F6C6C65722E73726563B7
S11300000C9434000C9446000C9446000C94460066
S11300100C9446000C9446000C9446000C94280161
S11300200C94FC000C9446000C9446000C9488013B
S11300300C9448010C9446000C9446000C94460021
S11300400C9446000C9446000C9446000C94460014
S11300500C9446000C9446000C9446000C94460004
S11300600C9446000C94460011241FBECFEFD8E038
S1130070DEBFCDBF21E0A0E0B1E001C01D92A830F9
S1130080B207E1F70E94A0010C942F040C94000025
S1130090E1EBF0E080818160808380ED8093B300A8
S11300A088E18093B400E1E8F0E08081826080839D
S11300B0209A8AB1806E8AB928985D985F985E9874
S11300C01092010108954F925F926F927F928F92E6
S11300D09F92AF92BF92CF92DF92EF92FF922B0149
S11300E03C0169017A0160E070E080E89FE30E94CE
S11300F0B0014B015C01A7019601C701B6010E9442
S1130100B101A50194010E94220220E030E040E008
S113011050E40E94B101A30192010E9475039B0166
S1130120AC0160E070E08AE794E40E94220220E0DF
S113013030E04AE754E40E9475030E94E20320E0A1
S113014030E048EE54E40E94B1010E94940270939E
S113015003016093020170930701609306016091AB
S113016002017091030180E090E00E94C302A701A4
S113017096010E947503A50194010E9422020E9427
S1130180940270930501609304018091040190919D
S1130190050190938B0080938A0020910401309193
S11301A005018091020190910301820F931F9093A6
S11301B089008093880020E030E0A901C701B601DE
S11301C00E941D02811104C081E08093000107C0D8
S11301D010920001EFE6F0E0808186608083FF905A
S11301E0EF90DF90CF90BF90AF909F908F907F90D3
S11301F06F905F904F9008951F920F920FB60F92D9
S113020011248F939F93EF93FF93E0E7F0E08081B5
S11302108B7F80831092850010928400809100016E
S1130220811107C080910101882311F0289A01C02F
S11302305D9A9091010181E0892780930101FF91EA
S1130240EF919F918F910F900FBE0F901F90189573
S11302501F920F920FB60F9211248F93EF93FF9377
S1130260E0E7F0E080818D7F80838091000181113F
S113027007C080910101882311F05E9A01C05F9A42
S1130280FF91EF918F910F900FBE0F901F901895D3
S11302901F920F920FB60F9211242F933F938F93B7
S11302A09F93EF93FF9380910101882381F05D98E0
S11302B0209104013091050180910601909107017C
S11302C0820F931F90938900809388000FC0289811
S11302D02091040130910501809102019091030164
S11302E0820F931F90938900809388001092B2002C
S11302F0E0E7F0E0808182608083FF91EF919F913D
S11303008F913F912F910F900FBE0F901F901895D2
S11303101F920F920FB60F9211248F9380910101B7
S1130320882311F05F9801C05E981092B20084E0B7
S1130330809370008F910F900FBE0F901F901895AF
S113034078941092000120E030E040E05FE360E048
S113035070E080E591E40E9463000E944800FFCFB2
S11303605058BB27AA270E94C8010C943B030E9443
S11303702D0338F00E94340320F039F49F3F19F420
S113038026F40C942A030EF4E095E7FB0C94240362
S1130390E92F0E944C0358F3BA17620773078407C6
S11303A0950720F079F4A6F50C946E030EF4E0950D
S11303B00B2EBA2FA02D0B01B90190010C01CA011B
S11303C0A0011124FF27591B99F0593F50F4503EC6
S11303D068F11A16F040A22F232F342F4427585FB8
S11303E0F3CF469537952795A795F0405395C9F7D0
S11303F07EF41F16BA0B620B730B840BBAF0915088
S1130400A1F0FF0FBB1F661F771F881FC2F70EC026
S1130410BA0F621F731F841F48F4879577956795F9
S1130420B795F7959E3F08F0B0CF9395880F08F0E5
S11304309927EE0F9795879508950E94000308F475
S113044081E008950E9436020C943B030E94340319
S113045058F00E942D0340F029F45F3F29F00C94DA
S1130460240351110C946F030C942A030E944C032F
S113047068F39923B1F3552391F3951B550BBB27CF
S1130480AA2762177307840738F09F5F5F4F220F14
S1130490331F441FAA1FA9F335D00E2E3AF0E0E80B
S11304A032D091505040E695001CCAF72BD0FE2F55
S11304B029D0660F771F881FBB1F261737074807E9
S11304C0AB07B0E809F0BB0B802DBF01FF279358A1
S11304D05F4F3AF09E3F510578F00C9424030C943E
S11304E06F035F3FE4F3983ED4F386957795679561
S11304F0B795F7959F5FC9F7880F911D96958795D6
S113050097F90895E1E0660F771F881FBB1F6217F4
S113051073078407BA0720F0621B730B840BBA0BB2
S1130520EE1F88F7E09508950E94540388F09F57C2
S113053098F0B92F9927B751B0F0E1F0660F771F03
S1130540881F991F1AF0BA95C9F714C0B13091F0F9
S11305500E946E03B1E008950C946E03672F782F08
S11305608827B85F39F0B93FCCF3869577956795BE
S1130570B395D9F73EF490958095709561957F4F2A
S11305808F4F9F4F0895E89409C097FB3EF49095D0
S11305908095709561957F4F8F4F9F4F9923A9F058
S11305A0F92F96E9BB279395F695879577956795E7
S11305B0B795F111F8CFFAF4BB0F11F460FF1BC02B
S11305C06F5F7F4F8F4F9F4F16C0882311F096E9BE
S11305D011C0772321F09EE8872F762F05C066236C
S11305E071F096E8862F70E060E02AF09A95660F25
S11305F0771F881FDAF7880F9695879597F90895DE
S1130600990F0008550FAA0BE0E8FEEF161617061F
S1130610E807F907C0F012161306E407F50798F087
S1130620621B730B840B950B39F40A2661F0232BA0
S1130630242B252B21F408950A2609F4A140A6951C
S11306408FEF811D811D089597F99F6780E870E001
S113065060E008959FEF80EC089500240A94161634
S1130660170618060906089500240A94121613069C
S1130670140605060895092E0394000C11F488232A
S113068052F0BB0F40F4BF2B11F460FF04C06F5F46
S11306907F4F8F4F9F4F089557FD9058440F551F1C
S11306A059F05F3F71F04795880F97FB991F61F0F0
S11306B09F3F79F087950895121613061406551F67
S11306C0F2CF4695F1DF08C0161617061806991FD3
S11306D0F1CF86957105610508940895E894BB27C8
S11306E066277727CB0197F908950E9488030C9415
S11306F03B030E942D0338F00E94340320F095231D
S113070011F00C9424030C942A0311240C946F0309
S11307100E944C0370F3959FC1F3950F50E0551F51
S1130720629FF001729FBB27F00DB11D639FAA2742
S1130730F00DB11DAA1F649F6627B00DA11D661F91
S1130740829F2227B00DA11D621F739FB00DA11DB2
S1130750621F839FA00D611D221F749F3327A00D6C
S1130760611D231F849F600D211D822F762F6A2F08
S113077011249F5750409AF0F1F088234AF0EE0F6D
S1130780FF1FBB1F661F771F881F91505040A9F79A
S11307909E3F510580F00C9424030C946F035F3F3B
S11307A0E4F3983ED4F3869577956795B795F795D6
S11307B0E7959F5FC1F7FE2B880F911D969587954E
S11307C097F908950E945403E8F09E37E8F09639AB
S11307D0B8F49E3848F4672F782F8827985FF9CFAC
S11307E086957795679593959539D0F3B62FB17023
S11307F06B0F711D811D20F48795779567959395EF
S11308000C9406040C9421040C946F03882371F453
S1130810772321F09850872B762F07C0662311F495
S113082099270DC09051862B70E060E02AF09A95CC
S1130830660F771F881FDAF7880F9695879597F9C3
S113084008959F3F31F0915020F4879577956795EF
S1130850B795880F911D9695879597F90895F89403
S1050860FFCFC4
S9030000FC
