S01F00004C696E6561725F4D6F746F725F436F6E74726F6C6C65722E73726563B7
S11300000C9434000C9451000C9451000C94510045
S11300100C9451000C9451000C9451000C940D025A
S11300200C944F020C9451000C9451000C9429022E
S11300300C94B2020C9451000C947D000C94510069
S11300400C9451000C9451000C94D5020C94510062
S11300500C9451000C948F000C9451000C9451009A
S11300600C9451000C94510011241FBECFEFD8E022
S1130070DEBFCDBF11E0A0E0B1E0E4EBFDE002C0E3
S113008005900D92A834B107D9F727E0A8E4B1E0B0
S113009001C01D92A336B207E1F70E9434030C9409
S11300A0D8060C940000EAE7F0E080818660808343
S11300B08081806880838081886080838081806281
S11300C08083ABE7B0E08C9183608C9385B58360CB
S11300D085BDACE7B0E08C9181608C9380818064B5
S11300E08083089585E087BDEEE6F0E0808182603C
S11300F0808316BC10922A0508951F920F920FB6A2
S11301000F9211248F9380912A058F5F80932A0583
S113011016BC8F910F900FBE0F901F9018951F92D1
S11301200F920FB60F9211242F933F938F939F93A7
S1130130EF93FF938091250581118AC02091D2030A
S11301408DEC289F812D1124869586958695880FA0
S1130150982F990F990F890F281330C08091D203DB
S11301609DEC899F812D1124869586958695809393
S11301704E01E0914E01F0E0809178009091790079
S1130180EE0FFF1FEC5AFE4F91838083E0914E01E6
S1130190F0E086B530912A0527B590E0329F800DB6
S11301A0911D1124EE0FFF1FEA52FC4F91838083AF
S11301B0ECE7F0E080818E7F808335C0E091D2034C
S11301C08091780090917900F0E0EE0FFF1FEA50E3
S11301D0FC4F91838083E091D20386B530912A0548
S11301E027B5F0E0EE0FFF1FEE5CFA4F90E0329F70
S11301F0800D911D1124918380839091D2038DEC05
S1130200989F812D1124869586958695880F282F91
S1130210220F220F820F981B993029F4ECE7F0E0AB
S11302208081816080838091D2038F5F8093D20329
S11302308091D203853961F4EEE6F0E080818D7F10
S1130240808381E0809325051092D20310922A05C1
S1130250FF91EF919F918F913F912F910F900FBE3E
S11302600F901F901895E1EBF0E08081816080830E
S113027080E48093B30080E18093B400E1E8F0E08F
S1130280808182608083209A8AB1806E8AB9289A9C
S11302905E9A5D985F981092530181E080932D05DA
S11302A008954F925F926F927F928F929F92AF9236
S11302B0BF92CF92DF92EF92FF926B017C01842F69
S11302C090E090935F0680935E06642F70E080E078
S11302D090E00E94CE0520E030E04FE753E40E9416
S11302E02D052B013C01A7019601C701B6010E940F
S11302F0C1049B01AC0160E070E08AE794E40E94D1
S11303002D054B015C019B01AC01C301B2010E94AC
S11303105C066B017C01A301920160E070E080E85F
S11303209FE30E94C004A50194010E945C06A701FA
S113033096010E94C10420E030E0A9010E94C1049A
S113034020E030E04AE754E40E945C060E949F05E6
S113035070932C0560932B0520E030E04AE754E4C9
S1130360C701B6010E945C060E949F05709350016C
S113037060934F011092D30381E0809353018091E5
S11303802D05882391F080912B0590912C05909355
S113039089008093880080914F019091500190933F
S11303A08B0080938A0010922D05EFE6F0E08081A7
S11303B0866080831092850010928400FF90EF90F5
S11303C0DF90CF90BF90AF909F908F907F906F9071
S11303D05F904F900895CF92DF92EF92FF920F9328
S11303E01F93CF93DF934115510571F08A016B017F
S11303F07C01C0E0D0E04C2FC701B6010E9451013E
S11304002196C017D107B9F7DF91CF911F910F91B2
S1130410FF90EF90DF90CF9008951F920F920FB648
S11304200F9211248F93EF93FF93E0E7F0E0808124
S11304308D7F80838091D303811102C05F9A01C0B4
S11304405E9AFF91EF918F910F900FBE0F901F90C6
S113045018951F920F920FB60F9211248F93EF935A
S1130460FF938091D303811102C05E9801C05F980D
S1130470EFE6F0E080818D7F808380818B7F8083B5
S1130480E0E7F0E08081846080831092B200FF9105
S1130490EF918F910F900FBE0F901F9018951F92A0
S11304A00F920FB60F9211248F939F93EF93FF93A4
S11304B0E0E7F0E080818B7F808380915E069091FD
S11304C05F06892BC1F480818D7F808380818B7F3F
S11304D08083EFE6F0E080818D7F808380818B7F55
S11304E080835F985E9828985D985F9A5E9A81E011
S11304F080932D052EC08091D303811105C05D9A90
S113050081E08093D30303C0289A1092D30380918F
S11305105301882391F080912B0590912C059093A1
S113052089008093880080914F01909150019093AD
S11305308B0080938A0010925301EFE6F0E08081F3
S11305408460808380818260808310928500109211
S11305508400FF91EF919F918F910F900FBE0F90A8
S11305601F9018951F920F920FB60F9211248F931C
S1130570EF93FF93EFE6F0E080818B7F808380919F
S1130580D303811102C0289801C05D98E0E7F0E030
S11305908081826080831092B200FF91EF918F91ED
S11305A00F900FBE0F901F9018951F920F920FB6C9
S11305B00F9211248F939F93EF93FF938091C60022
S11305C090914A01911147C08B3749F490914B01A6
S11305D09F5F90934B0191E09093480112C08D3737
S11305E081F490914801913061F490914B019150C4
S11305F090934B0190914B01911103C091E0909322
S11306004A01909148019130A9F4E0914C01F0E045
S1130610EC59F94F808380914C018F5F80934C019A
S113062080914A01813031F4E0914C01F0E0EC59C1
S1130630F94F108280914C018E3F21F080914B0143
S1130640843048F081E0809349011092480110926F
S11306504A0110924C01FF91EF919F918F910F905D
S11306600FBE0F901F901895CF93DF9300D000D04A
S11306701F92CDB7DEB783E390E00E9465047894BF
S1130680E0916206F091630680E090E0A8E4B1E4B2
S113069080839183A283B383E0916006F091610625
S11306A080E580830E943301E0916006F091610649
S11306B04081E0916206F0916306608171818281DC
S11306C0938150E00E94EB010E94530080916206E6
S11306D0909163060E947200109225051092D20335
S11306E00DEC0F2EF8EEAF2EF3E0BF2EF02D0F2EF3
S11306F0F4E67F2EF02D0F2EF1EC4F2E512CF02D21
S113070080912505813009F08EC00F2EF8EFEF2E71
S1130710F3E0FF2EF02D10E082C0109F812D1124F4
S1130720869586958695880F982F990F990F890F2E
S1130730181709F471C0F701408151814A01969458
S1130740879496948794969487949401A5ECB0E248
S11307500E94C906FC01F295E295EF70EF27FF7045
S1130760EF27EA9DC001EB9D900DFA9D900D112499
S1130770FA01E81BF90B6F01D694C794D694C79479
S11307809601ABE7B4E10E94C906AC0156954795C2
S1130790749EC001759E900D1124AF01481B590B26
S11307A09401A5ECB0E20E94C906929582958F70DF
S11307B089279F708927805D89839601ABE7B4E11F
S11307C00E94C90696958795805D8A839A01ADEC4F
S11307D0BCEC0E94C9069695879596958795969543
S11307E0879520E3280F2B839C01220F331F880F4A
S11307F0991F880F991F880F991F820F931F481BF9
S1130800590B405D4C831D82CE0101960E947A04EF
S113081084E491E00E947A04F2E0EF0EF11C1F5F81
S1130820163909F07ACF80914A01813091F5F201AD
S113083080818F7E808380E091E00E947A0484E648
S113084096E00E947A04609160067091610684E6E5
S113085096E00E949004E0916006F0916106408168
S1130860E0916206F09163066081718182819381D7
S11308700E94510184E491E00E947A0410924A019A
S11308801092480110924C01F201808180618083B2
S113089037CF80914901813009F032CFF201808154
S11308A08F7E808380E091E00E947A0489E191E068
S11308B00E947A04109249011092480110924B014F
S11308C0F2018081806180831BCF1092C0008093ED
S11308D0C400E1ECF0E080818860808380818061E5
S11308E08083808180688083E2ECF0E08081866090
S11308F080830895CF93DF93FC012081222369F044
S1130900DC011196E0ECF0E0C6ECD0E0908195FFBC
S1130910FDCF28832D912111F9CFDF91CF91089537
S11309200F931F93CF93DF938B01FC013196AC019E
S11309304C5F5F4FC0E0D0E09E01220F331FCC0F0D
S1130940DD1FCC0FDD1FCC0FDD1FC20FD31F219184
S113095030E020533109C20FD31FE417F50761F7C4
S1130960FC018181803721F489E391E00E947A04BB
S1130970F801D183C083DF91CF911F910F91089526
S11309805058BB27AA270E94D8040C9422060E9420
S1130990140638F00E941B0620F039F49F3F19F426
S11309A026F40C9411060EF4E095E7FB0C940B0668
S11309B0E92F0E94330658F3BA17620773078407B6
S11309C0950720F079F4A6F50C9455060EF4E095FD
S11309D00B2EBA2FA02D0B01B90190010C01CA01F5
S11309E0A0011124FF27591B99F0593F50F4503EA0
S11309F068F11A16F040A22F232F342F4427585F92
S1130A00F3CF469537952795A795F0405395C9F7A9
S1130A107EF41F16BA0B620B730B840BBAF0915061
S1130A20A1F0FF0FBB1F661F771F881FC2F70EC000
S1130A30BA0F621F731F841F48F4879577956795D3
S1130A40B795F7959E3F08F0B0CF9395880F08F0BF
S1130A509927EE0F9795879508950E9441050C9468
S1130A6022060E941B0658F00E94140640F029F446
S1130A705F3F29F00C940B0651110C9456060C940C
S1130A8011060E94330668F39923B1F3552391F3B9
S1130A90951B550BBB27AA2762177307840738F0E9
S1130AA09F5F5F4F220F331F441FAA1FA9F335D046
S1130AB00E2E3AF0E0E832D091505040E695001CFA
S1130AC0CAF72BD0FE2F29D0660F771F881FBB1FB4
S1130AD0261737074807AB07B0E809F0BB0B802D92
S1130AE0BF01FF2793585F4F3AF09E3F510578F0BE
S1130AF00C940B060C9456065F3FE4F3983ED4F333
S1130B00869577956795B795F7959F5FC9F7880F91
S1130B10911D9695879597F90895E1E0660F771FE3
S1130B20881FBB1F621773078407BA0720F0621B74
S1130B30730B840BBA0BEE1F88F7E09508950E949F
S1130B403B0688F09F5798F0B92F9927B751B0F01A
S1130B50E1F0660F771F881F991F1AF0BA95C9F73D
S1130B6014C0B13091F00E945506B1E008950C9480
S1130B705506672F782F8827B85F39F0B93FCCF333
S1130B80869577956795B395D9F73EF490958095BA
S1130B90709561957F4F8F4F9F4F0895E89409C0DA
S1130BA097FB3EF490958095709561957F4F8F4F9C
S1130BB09F4F9923A9F0F92F96E9BB279395F695B2
S1130BC0879577956795B795F111F8CFFAF4BB0F30
S1130BD011F460FF1BC06F5F7F4F8F4F9F4F16C094
S1130BE0882311F096E911C0772321F09EE8872F1E
S1130BF0762F05C0662371F096E8862F70E060E0DA
S1130C002AF09A95660F771F881FDAF7880F969552
S1130C10879597F9089597F99F6780E870E060E0F9
S1130C2008959FEF80EC089500240A941616170681
S1130C3018060906089500240A94121613061406C9
S1130C4005060895092E0394000C11F4882352F02C
S1130C50BB0F40F4BF2B11F460FF04C06F5F7F4FE4
S1130C608F4F9F4F089557FD9058440F551F59F0CB
S1130C705F3F71F04795880F97FB991F61F09F3F85
S1130C8079F087950895121613061406551FF2CFAE
S1130C904695F1DF08C0161617061806991FF1CFFE
S1130CA086957105610508940895E894BB27662725
S1130CB07727CB0197F908950E946F060C942206BA
S1130CC00E94140638F00E941B0620F0952311F0B0
S1130CD00C940B060C94110611240C9456060E94D5
S1130CE0330670F3959FC1F3950F50E0551F629F33
S1130CF0F001729FBB27F00DB11D639FAA27F00D71
S1130D00B11DAA1F649F6627B00DA11D661F829F97
S1130D102227B00DA11D621F739FB00DA11D621F7C
S1130D20839FA00D611D221F749F3327A00D611D99
S1130D30231F849F600D211D822F762F6A2F11247B
S1130D409F5750409AF0F1F088234AF0EE0FFF1FAE
S1130D50BB1F661F771F881F91505040A9F79E3F05
S1130D60510580F00C940B060C9456065F3FE4F397
S1130D70983ED4F3869577956795B795F795E7955B
S1130D809F5FC1F7FE2B880F911D9695879597F964
S1130D900895A29FB001B39FC001A39F700D811D50
S1130DA01124911DB29F700D811D1124911D089570
S1070DB0F894FFCFE1
S1130DB40A0D46726F6D204D6963726F636F6E74B2
S1130DC4726F6C6C65723A20004572726F722120E6
S1130DD454686520636F6D6D616E64206973206966
S1130DE46E76616C69640A0D000A0D697473206877
S10B0DF4657265210A0D00007F
S9030000FC
