S01F00004C696E6561725F4D6F746F725F436F6E74726F6C6C65722E73726563B7
S11300000C9434000C9446000C9446000C94460066
S11300100C9446000C9446000C9446000C94460044
S11300200C9446000C9446000C9446000C94F50085
S11300300C94D0000C9446000C94AD000C947F00FA
S11300400C9446000C9446000C9446000C94460014
S11300500C9446000C9446000C9446000C94460004
S11300600C9446000C94460011241FBECFEFD8E038
S1130070DEBFCDBF21E0A0E0B1E001C01D92AB30F6
S1130080B207E1F70E9413010C9422010C940000C2
S113009085B5816085BD80ED87BD88E188BDE1E8D7
S11300A0F0E080818260808381E084B980EE8AB947
S11300B0289A5D985F985E9A10920401089580E2F0
S11300C09EE4909308018093070180910701909129
S11300D00801805E914B9093890080938800809101
S11300E007019091080190938B0080938A000895F2
S11300F07894EFE6F0E080818660808308951F9213
S11301000F920FB60F9211248F939F93EF93FF9347
S1130110EEE6F0E080818B7F808310928500109260
S1130120840080910401882329F095B181E0892716
S113013085B904C09BB180E289278BB990910401F1
S113014081E0892780930401FF91EF919F918F9122
S11301500F900FBE0F901F9018951F920F920FB61D
S11301600F9211248F939F93EF93FF93EEE6F0E0A9
S113017080818D7F808380910401882329F09BB145
S113018080E489278BB903C08BB180588BB9FF9168
S1130190EF919F918F910F900FBE0F901F90189524
S11301A01F920F920FB60F9211248F939F93EF9388
S11301B0FF9380910401882329F09BB180E2892771
S11301C08BB904C095B181E0892785B916BCEEE6E8
S11301D0F0E0808182608083FF91EF919F918F9105
S11301E00F900FBE0F901F9018951F920F920FB68D
S11301F00F9211248F939F9380910401882321F0FF
S11302008BB180588BB904C09BB180E489278BB92A
S113021016BC84E080936E009F918F910F900FBE67
S11302200F901F90189520E030E048E452E460E01D
S113023070E080E491E40E945F000E9448000E9404
S10B02407800FFCFF894FFCF12
S9030000FC
