S01F00004C696E6561725F4D6F746F725F436F6E74726F6C6C65722E73726563B7
S11300000C9434000C9446000C9446000C94460066
S11300100C9446000C9446000C9446000C94740016
S11300200C9448000C9446000C9446000C94B200C6
S11300300C9494000C9446000C9446000C944600D6
S11300400C9446000C9446000C9446000C94460014
S11300500C9446000C9446000C9446000C94460004
S11300600C9446000C94460011241FBECFEFD8E038
S1130070DEBFCDBF21E0A0E0B1E001C01D92A830F9
S1130080B207E1F70E94CA000C94CB000C94000064
S11300901F920F920FB60F9211248F939F93EF9399
S11300A0FF93E0E7F0E080818B7F808310928500EE
S11300B01092840080910001811107C08091010198
S11300C0882311F0289A01C05D9A9091010181E082
S11300D0892780930101FF91EF919F918F910F9058
S11300E00FBE0F901F9018951F920F920FB60F928C
S11300F011248F93EF93FF93E0E7F0E080818D7FED
S1130100808380910001811107C0809101018823BF
S113011011F05E9A01C05F9AFF91EF918F910F9059
S11301200FBE0F901F9018951F920F920FB60F924B
S113013011248F93EF93FF9380910101882311F091
S11301405D9801C028981092B200E0E7F0E0808149
S113015082608083FF91EF918F910F900FBE0F907B
S11301601F9018951F920F920FB60F9211248F9320
S113017080910101882311F05F9801C05E9810926C
S1130180B20084E0809370008F910F900FBE0F90A7
S10D01901F901895FFCFF894FFCFDD
S9030000FC
